:020000040800F2
:1000000000200020D93A0008EF260008F326000857
:1000100000000000000000000000000000000000E0
:10002000000000000000000000000000F1260008B1
:100030000000000000000000ED260008DD2600089A
:10004000293B0008293B0008293B0008293B000800
:10005000293B0008293B0008293B0008AD26000881
:1000600000000000E9250008293B0008293B0008A2
:10007000293B0008293B0008293B0008293B0008D0
:10008000293B0008293B0008293B0008293B0008C0
:1000900000000000293B0008293B000869250008F2
:1000A000293B000845240008293B0008293B00089B
:0C00B000293B0008293B0008000000006C
:1000BC0010B5064C2378002B07D1054B002B02D032
:1000CC00044800E000BF0123237010BD3C04002055
:1000DC00000000003C720008044B10B5002B03D04C
:1000EC000349044800E000BF10BDC04600000000FA
:1000FC00400400203C720008F0B50F4C2668B5692E
:10010C0005402D1A6F427D418D4201D0002011E037
:10011C00E56CED1AAA42F2D22022636C0120134343
:10012C006364230041331A702200002342324034AE
:10013C0013702370F0BDC04658040020F0B5059E26
:10014C000468064D770D606831433D431943120432
:10015C00A843114301436160F0BDC046FF63FF0338
:10016C001E4910B503681E4A884206D08024E40557
:10017C00A04202D01B4CA0420CD17024A343946D1E
:10018C00234388420FD08024E405A0420BD0154CA9
:10019C00A04208D0144CA04205D0144CA04202D06E
:1001AC00134CA04203D1134C2340146E23438024E0
:1001BC00A343946E23430360D36DC362536D836278
:1001CC00884205D0094B984202D0094B984201D184
:1001DC00536E03630123436110BDC046002C0140E4
:1001EC00580400200004004000200040004401405E
:1001FC0000480140FFFCFFFF70B504680E4EE56936
:10020C000D40A94201D1002015E0F56CAD1AAB42AE
:10021C00F5D22368094A13402360A368A332FF3246
:10022C009343A3602023021DD3670432D3670023BA
:10023C007C300370032070BD580400205FFEFFFF6C
:10024C00F7B5071DFB6F04000D000220202B48D1D1
:10025C000138002945D0002A43D08023A1685B01D6
:10026C00994204D12369002B01D1054239D12300D5
:10027C007C331E780220012E33D0002601381870F2
:10028C00DE602123FB67214BDB6C0193230054338D
:10029C001A80023300931A8080235B01994204D1A7
:1002AC002369B34201D12E001D00009B1B88002B3B
:1002BC000DD1FA2340212000019A9B00FFF79CFFEF
:1002CC0000280DD120237C34FB67207009E0FA2331
:1002DC0080212000019A9B00FFF78EFF002801D09F
:1002EC000320FEBD2268002D0BD133880236DB05BE
:1002FC00DB0D9362009B009A1B88013B9BB2138021
:10030C00D3E72B7801359362F4E7C04658040020FC
:10031C006A4BF7B51A006C3211780220012969D0AA
:10032C00012111701A006D321178C8B2012900D068
:10033C00C2E00231117019001C00743199641C2147
:10034C004C3421801C0000224E341A672180190085
:10035C0054310A80190056310A801A651A66DA651A
:10036C0080229C6919691202944204D180220C6883
:10037C00D20122430A605A6E514C524E1463524CB5
:10038C00DD69D462514C5463002494634C6834404E
:10039C004C60E024E400A5420FD880249569E40069
:1003AC00A5420AD11C004E342588ED0723D44D6894
:1003BC0035404D6025886D0825801C004E342488FE
:1003CC00A4B20094541DE57F012D08D00125961D83
:1003DC00E577F57FEFB2012D16D00022E2771022DF
:1003EC00196F0A431A6701226D331A700022334BBE
:1003FC006C331A70FEBD80254E68ED0135434D609F
:10040C0025886D080135D7E70220F0770020D063EE
:10041C001068D56C0468BC430460946C6560156D01
:10042C00002D02D0546D966D66601C26284C0F0072
:10043C00A446646874330194146C0C372640012470
:10044C00B440019E344366467460009C44609468DA
:10045C00102C2AD18760C3600E23046823430360E9
:10046C00536C1C68E40304D580241E686400344378
:10047C001C60002D04D080232C685B0023432B6070
:10048C00012304680532234303600023D3770A68F1
:10049C0040331A420CD020234A68002013434B608F
:1004AC0002234A6813434B60A0E78360C760D3E71D
:1004BC000A6813430B60EEE7022097E7D80400208C
:1004CC00F7090008FFBFFFFFF9090008DB09000866
:1004DC000000024007B56B46D91D044B0870012281
:1004EC001869FFF7ADFE01200EBDC046580500206F
:1004FC00F7B5374C0025230040331A782300E66CFF
:10050C0041331F78202F50D1012A4ED022001F3F9B
:10051C004032177022221A702300123A42331A709A
:10052C0000236364AA231B026185E362294B60628A
:10053C006363638DFF2B2CD9FF23238580235B04FE
:10054C00226BE26AAA2A28D10022E262628DFE2A7C
:10055C0000D8E36A228D20492000D2B20091842178
:10056C00FFF7ECFD22000023616B1C484032137036
:10057C001A00814203D01A48814200D0F43221681B
:10058C000B68134322000B604132632D12D92020DB
:10059C00FEBD638D2385E36AD2E7AA22E16A1202CB
:1005AC009142D3D180229204CFE7632DEFD8E56C32
:1005BC00AD1BA6E71378202B06D0632DE7D8E56C8E
:1005CC00636CAD1B002BF5D0632DE0D8606CDFE7BE
:1005DC00580400207114000800240080B115000894
:1005EC00191200080023F0B5DFB0039308930993A8
:1005FC000A930AAA0F339B18FD221A70934A0B9088
:10060C00130011004033187800241300D66C4131CC
:10061C000D78202D00D0A0E0012800D19DE018001D
:10062C00012240300270212008701900113842312B
:10063C000870002159645A85A932DA62844A0F3154
:10064C000AA85A635A8D09185962FF2A79D9FF22D0
:10065C001A8580235B047D4A116BD16AAA2974D157
:10066C000021D162794D6A8DFE2A00D8EB6A2A8D61
:10067C0078492800D2B200918421FFF75FFD2B004E
:10068C00002240331A7074486B6B1100834203D004
:10069C007248834200D0F2316C4A106803680B43F5
:1006AC000360632C00D9CBE01000130041300178BB
:1006BC00202907D0632C00D9C2E0DC6C596CA41B38
:1006CC000029F4D0632C00D9BAE0536C002B00D075
:1006DC00B6E002210EA8FFF70BFF041E00D0AFE01E
:1006EC000500070006000AAB1B7C0AAA527C1B0201
:1006FC001A4304920690049B002B00D1A2E06B4697
:10070C00049A1B8A402A00D940239BB219000EA8D8
:10071C000793FFF7EDFE002800D093E00590059BB2
:10072C00079A934200DB85E0059A0EAB9B5C092E81
:10073C0077D8300002F0F4FE161E232A31394658C1
:10074C0078635A8D1A85DB6A85E7AA21D06A09027B
:10075C00884287D18021890483E7632C70D8D46CBC
:10076C00A41B55E7B53B5E425E4105980130C3B210
:10077C000593D4E7623B5E425E417600F5E75D1976
:10078C00EDB22C190326E4B20993EEE75D19EDB234
:10079C0064190426E4B20A93E7E75D19EDB29AB244
:1007AC00641905260392E4B2DFE703995D191A0276
:1007BC00EDB21143641906260391E4B20029D4D199
:1007CC000236D2E75D191EA97A1CCB55EDB2039BFC
:1007DC00641992B2E4B2934229D0802317005B00D3
:1007EC009A42C2D10726C0E7039B0137BFB202333E
:1007FC009F42BAD10024250027002600B5E7089AAD
:10080C009542F7D1A342F5D10B9C039B0A99099809
:10081C001EAAA047041EEED0069B01339BB2069382
:10082C00E8E70A2EE6D0A0E7092608939DE70826FC
:10083C00039F9AE7049B079A9B1A9BB204935AE76F
:10084C000023069306985FB0F0BDC0465804002004
:10085C007114000800200080B1150008191200085E
:10086C000B00083B70B50371002302221C0043717E
:10087C008E1E855C01326419E4B2E31892B2DBB2CD
:10088C00B242F6DB4018821E01381470037070BD42
:10089C0010B5164A86B0019203920592421E904101
:1008AC00C221134A40421040104A09048018029198
:1008BC00A02104900022022001ABC9059C588C6138
:1008CC00C046C046C046C046C046C046C046C046EC
:1008DC00C046C046C046C04604328861142AEDD1D9
:1008EC0080239B028B6106B010BDC0464000820085
:1008FC00800080FF03000020052B03D10139484202
:10090C004841C0B2704770B5FA260B4CB600E56C86
:10091C00E36C5B1BB3420AD20848FFF763FE002866
:10092C0009D1E26CE36C9B1A0A2BFBD9F0E740224D
:10093C00034B9A61FEE770BD5804002001090008C2
:10094C0000080050030010B54218507894785B5C96
:10095C002404000220431843D3781B06184310BD0F
:10096C00E021036810B55A688A435A6082224168B4
:10097C00520091420CD18021826809028A4203D034
:10098C008021C9008A4203D140211A688A431A6027
:10099C008021826A89018A4206D11968074C21405C
:1009AC00196019680A431A60030001225D331A703A
:1009BC0000235C300370032010BDC046FFDFFFFF37
:1009CC00836A002219000831CA87DA877047836A64
:1009DC00032019684A6882434A601022196E0A4340
:1009EC001A6601225D331A707047704773B5202167
:1009FC00304D0368EE6C1B68846A0B4209D02E4B99
:100A0C0022689A4242D1A0238022DB059A619A6225
:100A1C003CE023685A688A4302215A605A688A4328
:100A2C00C0215A6049019A680A4208D0EA6C921BAC
:100A3C00632AF8D92000FFF793FF002831D18022D8
:100A4C0021688B68134208D0EB6C9B1B632BF8D985
:100A5C002000FFF785FF002823D1C0212268C900A0
:100A6C0093680B4213D1A368002B06D10193236822
:100A7C00DA6801929B680193019B0023E3872300B2
:100A8C0001225D331A70236E002BB8D073BD137B1B
:100A9C00EB6C9B1B632BE3D92000FFF761FF002855
:100AAC00E1D02023226E134323662023226E1343AE
:100ABC002366D8E75804002000300140FA2170B5B5
:100ACC00124D04008900286802F03EFD8023013895
:100ADC005B04984201D3012070BD0D490D4A48605A
:100AEC00C020136A00061B021B0A0343136200207A
:100AFC00072388600B60032CEDD8136AA1071B0237
:100B0C001B0A0B4313626C60E6E7C0460000002032
:100B1C0010E000E000ED00E0F8B50123411DCB77BB
:100B2C00841DE27F022A03D00422C2631800F8BDA0
:100B3C000E2602681568B54315601568466C9D4312
:100B4C0015603268114D2A4032601C22AC46056C8F
:100B5C000F4E2A40934077683B437360C26C836CA2
:100B6C005A60036D002B06D065461A682A401A603D
:100B7C00436D826D5A600123E3770024CC77826B3E
:100B8C001300A242D2D090472300CFE7FFFEFFFF15
:100B9C0000000240064B074A9B685B045B0F9B00FE
:100BAC009B581F221340044A1068D8407047C04617
:100BBC0000100240547200080000002038231E4A26
:100BCC0070B591681400194205D113681B489B0439
:100BDC005B0FD84070BD91681940082927D09168E7
:100BEC001940102917D1D368D168DB437F22E568FF
:100BFC004906490F2D0A013115409B0709D11048B0
:100C0C0002F0A2FCE1686843490F013102F09CFC40
:100C1C00E0E70A48F4E791681940202909D0926866
:100C2C0000201340182BD5D1FA20C001D2E704487C
:100C3C00D0E780200002CDE7001002400024F40031
:100C4C0000127A00002310B5CA0708D503004133FF
:100C5C001A7828231A401A33282A00D0B0338A076E
:100C6C0008D502002824413212782240A2420AD12F
:100C7C00442213434A0701D5B822134301680A687A
:100C8C009A430A6010BDF422F3E70300282110B543
:100C9C0041331B78040002680B408B4225D19369C9
:100CAC0093699168D068E068022816D1FC301B0C5F
:100CBC0089050340490F4B401900F83801400342A5
:100CCC000BD1A36C0133A364A36C022B04D1A164DC
:100CDC0006334034D361217010BD04212000FFF78E
:100CEC00B1FF002340342370F6E70823D361F8E703
:100CFC000022836A996B8A63D96B41338A631A78B1
:100D0C00602A01D1403A1A70704703689A699207B9
:100D1C0001D500229A6201229969114202D1996986
:100D2C000A439A61704770B51C4C0200236810216D
:100D3C009D69280008400D422ED020259969080095
:100D4C002840294218D010222000DA61DD61FFF71B
:100D5C00DCFF2268124953680B4053600423626C19
:100D6C00134363642300220041331D70002342327D
:100D7C004034137023700EE0E16C891A6429DDD9BC
:100D8C00636C2B436364230041331D702300403498
:100D9C00423318702070012070BDC04658040020EA
:100DAC0000E800FEF0B55D4C85B027000290039181
:100DBC0041373B780225202B10D1230040331A7881
:100DCC00012A0BD001218020E66C19701922330006
:100DDC000002FFF791F9051E03D00125280005B08C
:100DEC00F0BD21233B702300102242331A70029B6A
:100DFC0060646362039B60636385638DFF2B22D900
:100E0C00FF2321682385464A4B681A40454B134300
:100E1C004B608027BF04414C638D002B36D12027BB
:100E2C0023689A693A4268D0DF615A683E490A40A1
:100E3C005A602300220041331F7000234232403499
:100E4C0013702370CAE7628D384B92B222850093DF
:100E5C00802384212000D2B29B04FFF76FF9D8E7DE
:100E6C003000FFF760FF0028B7D1E36C9B1B642BAD
:100E7C000CD92022636C13436364230041331A7032
:100E8C0023004034423318702070A6E702212268F8
:100E9C0093690B42E4D0636A1978013391626362FF
:100EAC00638D218D013B9BB263850139638D89B2C2
:100EBC002185002BAFD00029ADD1330064228020D6
:100ECC00FFF71AF9002800D087E7638DFF2B09D9AB
:100EDC00FF2321682385164A4B681A40154B134390
:100EEC004B6098E7628D3B0092B222858421009082
:100EFC00D2B22000FFF722F98DE73000FFF713FF85
:100F0C00002800D069E7E36C9B1B642B88D9636CC9
:100F1C003B436364230041331F70B1E75804002046
:100F2C00009800FC8420FF8100E800FE0020008077
:100F3C00009C00FC8400FF0170B502000500002637
:100F4C00423241352B7816702D4A283BC2624685B9
:100F5C00426C04000A434264022B24D80321FFF79D
:100F6C0071FE28232B70274B266363632368802232
:100F7C001968D2010E00164011421FD01A6822497E
:100F8C00A06B0A401A6000280CD0204B002283630F
:100F9C00230040331A70FFF7BFFD002802D0A06B6E
:100FAC00836B984770BD0721FFF74CFE2B78602BA5
:100FBC0001D020232B7000232363D6E718688021EF
:100FCC00020009020A40084211D01A681049E06B6D
:100FDC000A401A600028E5D00C4B83632300403391
:100FEC001E70FFF799FD0028DCD0E06BD8E72B785A
:100FFC004034602B01D1403B2B702270D2E7C046AD
:10100C000000FFFF09130008FFBFFFFFFD0C0008E5
:10101C00FF7FFFFF164B10B5C36200230200036372
:10102C000400202041321070537063634B0713D5BA
:10103C002368626A5B6A1370636A01336362238D8F
:10104C00002B09D0013B2385638D013B9BB263854B
:10105C000423626C1343636420000721FFF7F2FD45
:10106C00102223684034DA610023237010BDC0467F
:10107C000000FFFF2022036810B5DA615A680400F3
:10108C001A4802405A60002222636263184AE262E4
:10109C00CA0605D51022DA610423626C134363641B
:1010AC002000FFF732FE03212000FFF7CBFD2200CA
:1010BC004132636C1178602901D0002B04D02000E0
:1010CC00616CFFF739FF10BD1178212908D1013966
:1010DC001170220040344232117813702370F2E701
:1010EC0011782229EFD10239F2E7C04600E800FE60
:1010FC000000FFFF030070B5002542331D70013B5B
:10110C001A780400292A0AD1013A1A7021230121E4
:10111C00036320004034FFF795FD257070BD1A78ED
:10112C002A2AFBD1023A1A70222302210363F0E728
:10113C002022F8B5036804001D680F00DA6107214E
:10114C00FFF780FD802223681202596820000A43B1
:10115C005A605A682B490A405A60FFF7D6FD0123A2
:10116C006A0438D5A36B002B03D01B685B689BB259
:10117C0063857B0711D504239F432368626A5B6AEE
:10118C001370636A01336362238D002B05D0013B1E
:10119C002385638D013B9BB26385638D002B03D04C
:1011AC000423626C13436364220000232500423243
:1011BC0023631370666C636341359E4210D020002C
:1011CC00616CFFF7B9FE2B78282B03D13900200076
:1011DC00FFF720FFF8BDED0B1D42CAD0E36BC2E751
:1011EC002700E36A084A4037934208D02000FFF7F3
:1011FC0081FF054AE26220232B703E70EAE72A78D1
:10120C00F9E7C04600E800FE0000FFFFF8B5050056
:10121C0040352B780400C66A0220012B31D0012303
:10122C0008092B70184250D0100918424DD0900B61
:10123C00D20B84461043184243D0E76B381E06D0BD
:10124C0000201A4203D03B68586843425841A36BB4
:10125C00002B06D06246D20703D51B685B68002BB7
:10126C0001D001281ED1230041331A78282A09D134
:10127C0080229204964205D12000FFF7CBFE00207D
:10128C002870F8BD102219782368DA612929F6D163
:10129C0018498E42F3D02000FFF737FD2000FFF7EE
:1012AC0029FFECE710222368DA610423626C1343F4
:1012BC006364114B1E42E2D12000616CFFF73CFECF
:1012CC00DDE710222368DA61D9E70123080706D588
:1012DC00D008184203D02000FFF7D7FCCFE701233A
:1012EC008806CCD552091A42C9D02000FFF720FF3E
:1012FC00C5E7C0460000FFFFFFFFFFFEF8B5070083
:10130C00403716003A780400C36A0D000220012A07
:10131C0023D0012209093A7011423ED03109114201
:10132C003BD0628D002A29D1220041321178282924
:10133C0014D1802189048B4210D129002000FFF7A1
:10134C0069FE0123AA0606D576091E4203D02900A0
:10135C002000FFF7EDFE00203870F8BD102110784A
:10136C002268D1612928ECD12F488342E9D0200092
:10137C00FFF7CBFC2000FFF7BDFEE2E7102122684F
:10138C00D1610422616C0A436264284A1342D8D1A9
:10139C002000616CFFF7D0FDD3E7012269071CD553
:1013AC00B108114219D0628D002A0FD00422954346
:1013BC002268616A526A0A70626A01326262228D24
:1013CC00013A2285628D013A92B26285628D002AC1
:1013DC00B7D1154A9342B4D0CCE70122290706D5E0
:1013EC00F108114203D02000FFF74FFCA9E70122BE
:1013FC00A907A6D571081142A3D0628D002A0DD081
:10140C00636A22681978013391626362638D013BD0
:10141C009BB26385238D013B238592E7034A1342DC
:10142C0000D08EE7A6E7C0460000FFFFFFFFFFFEDF
:10143C00030070B500242022050042331C70013BD0
:10144C00197840351A70212907D11123446303639D
:10145C002039FFF7F7FB2C7070BD122302210363B8
:10146C004463F6E7F7B5070040373B7804000D00FE
:10147C0016000220012B1DD001230A093B701A42D1
:10148C0019D032091A4216D0102223682000DA61D2
:10149C000423626C13436364FFF737FC0123AA0631
:1014AC0006D576091E4203D029002000FFF7E2FD85
:1014BC0000203870FEBD01236A0713D5B2081A420A
:1014CC0010D003339D432368626A5B6A1370636AAE
:1014DC0001336362238D013B2385638D013B9BB2FA
:1014EC006385DBE70123AA0707D572081A4204D0EB
:1014FC00636A226819789162EAE701232A0634D5D7
:10150C00B2091A4231D0628D2368002A21D0208D75
:10151C0000281ED15968638D8905890DFF2B08D9C8
:10152C00FF228023228500905B042000FEF706FE3C
:10153C00B4E7628DE36A92B29C46194B2285D2B213
:10154C009C4502D0E36A0090EFE7802300909B0457
:10155C00EBE75B689B0103D42000FFF769FF9DE775
:10156C0040212000FFF7E8FC98E701236A0600D42D
:10157C0094E7B2091A4200D190E7638D002BEFD1AA
:10158C0023685A68920100D588E7E16A044A9142BF
:10159C00E2D180225968D2010A435A607EE7C046E4
:1015AC000000FFFF37B5050040352B780400022002
:1015BC00012B1FD0012308092B7018421BD01009D6
:1015CC00184218D0102223684148DA61616C0C3A39
:1015DC000A436264626B6021824203D03D488242BE
:1015EC0000D094311A6820000A431A60FFF78DFB73
:1015FC00002028703EBD0123080646D590091842EC
:10160C0043D0402123681A688A431A60628D002AED
:10161C002FD05968638D8905890DFF2B1BD9FF23AA
:10162C00238580235B040020228D0090D2B2200001
:10163C00FEF784FD638D228D9B1A9BB2638523007C
:10164C0041331A7823681968222A0FD1802212029A
:10165C000A431A60CCE7638DE26A23851E4B9A42DB
:10166C0001D0E36ADFE780239B04DCE78022D20110
:10167C00EEE75B689B0103D42000FFF7D9FEB7E7C8
:10168C0040212000FFF758FCB2E70123480613D590
:10169C009009184210D0638D002BF1D123685A6841
:1016AC009201A5D4E16A0C4A9142E5D18022596895
:1016BC00D2010A435A609BE70123880600D497E7BE
:1016CC0052091A4200D193E72000FFF7D3FC8FE7B1
:1016DC00B1150008191200080000FFFF0023F0B537
:1016EC0085B00A681400DC4001D105B0F0BD0126BC
:1016FC0014009E4034400294324200D18BE04A6880
:10170C0015000192102295430395022D0DD107244B
:10171C000F251C40A400A540DA0892008218176A15
:10172C00AF430D69A5402F43176203225C00A24012
:10173C00D543AC46032507689743019A2A40A2403B
:10174C00039D3A43013D0260012D0FD86246856826
:10175C001540CA68A2402A4382604568019AB54385
:10176C000126120932409A402A4342606546C268FB
:10177C002A408D68A54080242A43C260019A6405E2
:10178C00224248D003250F271D40ED00AF40234ACD
:10179C009C08A400A418266E0022BE43A027FF05B7
:1017AC00B8420CD01E4F0132B84208D01D4F013246
:1017BC00B84204D01C4F0132B84200D00232AA40C9
:1017CC0032432266194A029CD66F029D019FE44364
:1017DC003543FF0301D435002540D567144D029ED7
:1017EC00EA6F019F1643BF0301D4224016000B4A37
:1017FC00EE671668029D019F3543FF0201D4350048
:10180C00254015605568029E019F2E43BF0201D4EE
:10181C0025402E005660013363E7C0460018024095
:10182C000004005000080050000C00500418024046
:10183C000818024070B5050005F0CCFC0400044B00
:10184C00290082B21869FEF7FBFC200070BDC0466F
:10185C00580500200023F0B505000C000A2787B0BE
:10186C0002AA137305AE3900280001F06DFE731E39
:10187C00009039002800019301F0ECFE013C30315E
:10188C00731E1970002C11D12E22B31E1A70092D43
:10189C0009D830232500033E33703000FFF7CAFF10
:1018AC00401907B0F0BD1E00009DDCE7019E092D1C
:1018BC00FAD80025AC42F0DD3020FEF70BFE050017
:1018CC002E20FEF707FE2D18013CE6D33020F8E75A
:1018DC00030010B5002802D0FFF7ACFF030018007E
:1018EC0010BD10B5041E02D0FFF7A4FF040002487F
:1018FC00FFF7A0FF001910BDE473000870B50400D9
:10190C000E00002809DA0648FFF794FF31000500A5
:10191C006042FFF79FFF401970BDFFF79BFFFBE78D
:10192C00E7730008F0B58BB06B461400002205334A
:10193C0006000D00DA77012900D80A2509AF30001E
:10194C00290001F087FE0300CAB2080031001E0016
:10195C0013003733013CDBB2092802D813003033B3
:10196C00DBB2013F3B708D42E9D90025012C09D136
:10197C006B46D91C30230B70054B22001869FEF7FF
:10198C005FFC25003800FFF755FF28180BB0F0BDA1
:10199C0058050020F8B50E00011C051C01F026FDB1
:1019AC00002805D03748FFF745FF04002000F8BD9C
:1019BC006C0064083449201C01F018FD002807D184
:1019CC003149201C00F0ACFE002801D12F48EAE779
:1019DC002F49281C00F0AEFE002801D02D48E2E76C
:1019EC002D49281C00F092FE0028F7D10021281C5C
:1019FC0000F08CFE041E06D02D20FEF76BFD80231C
:101A0C0004001B06ED18FC2000278005BE4205D003
:101A1C002249013701F03EF8FFB2F7E7291C00F02C
:101A2C009DFE051C01F026FF070002F007F8011CC3
:101A3C00281C01F013FB00220A21051C3800FFF7BB
:101A4C0071FF0419002E03D02E20FEF743FD24183D
:101A5C00013EF6B2FF2EA9D01049281C01F0E4F982
:101A6C00051C01F007FF00220A210700FFF75AFFAF
:101A7C002418380001F0E2FF011C281C01F0EEFADA
:101A8C00051CE5E7E9730008FFFF7F7FED73000895
:101A9C00FFFF7F4FF1730008FFFF7FCF0000204155
:101AAC0070B51E00140000230A2820D104291ED171
:101ABC001048FFF70DFF20001E30FFF712FF0E48F5
:101ACC00FFF706FF2000FFF70CFF0C48FFF709FF9C
:101ADC002825AE4207D90A48FFF7FAFE6019FFF72E
:101AEC0000FF1E35F5E70748FFF7A4FE0123180099
:101AFC0070BDC046F5730008087400081B7400081C
:101B0C0035740008E473000810B5084C1C227434BA
:101B1C000021200005F036FA0123E3716375FEF70E
:101B2C00F7FB6422024B1B6D5A6310BDD8040020D6
:101B3C0058040020F0B50600140000278BB00128D3
:101B4C0000D0C3E3072900D0C0E31379089353797D
:101B5C00099393790193D3790393137A0493537A6A
:101B6C000593937A0693D37D0793537D034200D15B
:101B7C0090E310001131FEF7E5FE1C21050020005A
:101B8C00FEF7E0FE242102902000FEF7DBFE0400AD
:101B9C00FD4B029A1E759F61DD611A625862099BAA
:101BAC00FA481E02089B1E43FFF792FE072102987B
:101BBC00FFF7A4FEF648FFF78BFE07212800FFF77E
:101BCC009DFEF448FFF78DFEF348FFF781FE0321DD
:101BDC002000FFF793FEF148FFF783FEF048FFF774
:101BEC0077FE00220A210798FFF79CFEED4C20009F
:101BFC00FFF720FEEC48FFF76BFE00220A213000B5
:101C0C00FFF790FEE94F3800FFF762FE02220A212F
:101C1C000198FFF787FE3800FFF75AFE02220A21CF
:101C2C000398FFF77FFEE248FFF752FE02220A21DB
:101C3C000498FFF777FEDF4F3800FFF749FE0222CA
:101C4C000A210598FFF76EFE3800FFF741FE0222CD
:101C5C000A210698FFF766FE2000FFF7EBFD0E2029
:101C6C00019B0C21C01A01F0F9FC96225201B61806
:101C7C00361803000C205843019B0521C0189923EA
:101C8C0003385843023001F0E9FC039B6421C4186B
:101C9C006E20FF3070432418B010241849423000D5
:101CAC0001F0DCFCC82124184900300001F0D6FCFE
:101CBC00241804980C3801F0CFFBBF4900F0EAFE61
:101CCC00061C059801F0C8FBBC4900F0E3FE011CA2
:101CDC00301C00F043FD061C069801F0BDFBB84912
:101CEC0000F0D8FE011C301C00F038FD00210190E2
:101CFC0000F00CFD002800D0EBE2B24BE4182800F9
:101D0C0001F0AAFBB04901F08FF8B04B0790E01836
:101D1C0001F0A2FBAE4900F0BDFEAD49041C0198D8
:101D2C0000F0B8FE011C201C00F018FDA949041C91
:101D3C0001F07AF8011CA84801F090F9211C01F07F
:101D4C0073F8A64900F00AFDA54903F049FBA54923
:101D5C00051C01F069F803F08DFA291C0490281C6D
:101D6C0000F0FCFC9F4901F05FF803F083FA9E49F8
:101D7C000690281C01F058F89A4901F055F803F028
:101D8C0079FA9A490590201C01F04EF8984900F018
:101D9C00E5FC211C01F048F8964900F0DFFC904965
:101DAC0003F01EFB94490390201C01F03DF8011C2C
:101DBC00924801F053F98B4901F036F8051C03F0F9
:101DCC00FBF98F49071C201C01F02EF88D4900F0FF
:101DDC00C5FC211C01F028F8011C8B4801F03EF9D0
:101DEC00211C01F021F8894900F054FE011C88489F
:101DFC0001F034F98749061C381C01F015F8011C58
:101E0C00301C00F0ABFC071C281C03F033FA824991
:101E1C00061C201C01F008F8011C804801F01EF97A
:101E2C00211C01F001F8011C7D4801F017F90499FF
:101E3C0000F0FAFF7B49051C201C00F0F5FF011C8B
:101E4C00794801F00BF9069900F0EEFF011C281CF3
:101E5C0000F084FC7549051C059800F0E5FF011C99
:101E6C00281C00F07BFC039900F078FC704901F011
:101E7C00F5F87049051C301C00F0D6FF011C281C1D
:101E8C0001F0ECF8564903F0ABFA5649061C381C25
:101E9C0000F0CAFF03F0EEF95249051C301C00F0AB
:101EAC00C3FF03F0E7F9011C281C00F0BDFF03F091
:101EBC006BFA61490590201C00F0B6FF011C5F48CD
:101ECC0001F0CCF8211C00F0AFFF011C5C4801F0C4
:101EDC00C5F8FC21041C8905381C00F0A5FF4149FC
:101EEC0000F0A2FF03F004FA011C00F09DFF03991F
:101EFC00051C081C00F032FC3A4900F095FF061C4A
:101F0C0003F0B8F9071C301C03F056F98121089036
:101F1C00C905039800F088FF324900F085FF03F0F3
:101F2C00A9F9391C061C281C00F07EFF211C071C7B
:101F3C00201C00F013FC049900F076FF011C381CE7
:101F4C0001F08CF88121071CC905201C00F06CFFE6
:101F5C00291C00F069FF049900F066FF089900F055
:101F6C0063FF011C381C00F0F9FB291C071C281C02
:101F7C0000F05AFFFC21890500F056FF311C00F0DF
:101F8C0053FF011C381C5DE05805002079740008D3
:101F9C0084740008897400088C7400089D7400080F
:101FAC00A0740008E4730008A6740008E773000826
:101FBC0036740008337400080000C0410000B444BB
:101FCC0000C0A847D382FFFF95BFD633A797DAFF8F
:101FDC0000AD0E47882A21390D9F0C47BAC3B24376
:101FEC000000B44335FA8E3C00004040D1F69E39D7
:101FFC00C5A00C47B53B8C435CC4F144CB16FA42EC
:10200C002FA2ED3A3BAA1A3A8F423B42000061459F
:10201C00AB83BB411B7B273B8BE16A37EDD79D3BE9
:10202C00AE11F53FF6CFD3385CC8A33CEC8497399E
:10203C002E73BA3B8CA19C3B080B0834E350303810
:10204C008CE0883C01F00AF8DB49051C201C00F0F0
:10205C00EBFE211C00F0E8FE069900F0E5FE011CE9
:10206C00281C00F0FBFFD54900F0DEFE069002981C
:10207C0001F0F2F9D24900F0D7FED24900F0D4FEBB
:10208C00071C03F0F7F80390059803F0F3F8061C0F
:10209C00381C03F091F80490059803F08DF8011C9E
:1020AC00049800F0C1FEC8490890019800F0BCFEED
:1020BC00079900F053FB069900F050FBC14900F062
:1020CC00B3FE051C03F078F8311C041C039800F0D7
:1020DC00ABFE211C061C089800F0A6FE011C301C4F
:1020EC0000F03CFB03F050F9B44900F09DFE029067
:1020FC00281C03F0BFF8051C059803F0F9F8211C07
:10210C000590039800F090FE0599041C049800F0CB
:10211C008BFE011C201C00F0A1FF011C281C03F0ED
:10212C005BF9A64900F080FEA84900F017FB061CDD
:10213C00381C03F0DDF80899051CA54800F0AAFC32
:10214C00291C041C059800F06FFE011C201C00F0DB
:10215C0085FF03F0F1F8994900F066FE0699051C1D
:10216C00079800F0FBFA80231B069749071CC01840
:10217C0000F090FC291C041C281C01F037F90028E5
:10218C0000D1AFE00021029800F0D4FA211C002805
:10219C000AD08E49381C00F061FF80231B068A4947
:1021AC00C01800F077FC011C019800F057FF894F14
:1021BC00041C0021201C00F0A9FAFE21890500282E
:1021CC0000D1A2E0201C00F0C9FA041C8248FFF7E1
:1021DC007FFB0221301CFFF7DDFB804D2800FFF751
:1021EC0080FB7F48FFF774FB02210298FFF7D2FBBC
:1021FC002800FFF776FB7B48FFF76AFB0321201CC6
:10220C00FFF7C8FB784D2800FFF714FB7748FFF762
:10221C005FFB0321381CFFF7BDFB2800FFF70AFB0F
:10222C002800FFF707FB391C381C01F0DFF8704E53
:10223C00051E00D175E030000E220021743004F030
:10224C00A1FE6C49201C00F0EFFD02F0F1FF01F043
:10225C00E3F800236F227021FF241D00121A74363C
:10226C00081A190008319A4200DB78E0B4730B00AD
:10227C0001367029F5D1FEF74BF85F49029800F052
:10228C0059FA5E4B002800D172E0FA221B6D9200C5
:10229C005A631AE0D37A0322594C1340227D002A48
:1022AC0009D0032B07D15748FFF71BFB236AE569BD
:1022BC000293646A73E45448FFF713FBA369013378
:1022CC00A3611E2B01D1FFF71FFC012738000BB0B7
:1022DC00F0BDFE214D4B01988905E41800F03EFA43
:1022EC0001900CE53849281C00F0D4FB011C201C83
:1022FC0000F0B4FE011C019800F0B0FE3349041C40
:10230C00281C00F0C7FB071C53E7201C00F012FA36
:10231C00002800D15AE7FE21201C890500F09EFE02
:10232C0053E73B49381C00F07FFD02F081FF01F0C0
:10233C0073F86F23181A3300012174332A00002715
:10234C000832A84205DB904203DA0F00451BAF4070
:10235C00FFB21F7015000133702AEFD171E78A426A
:10236C0001DBB57383E72700C31A9F40B7737EE781
:10237C00284902981C6D00F0C9F9002802D064238A
:10238C006363A2E72449029800F04EFD02F072FF4D
:10239C00FE21890500F0E2F9204900F045FD2049B5
:1023AC0000F0DCF91F4900F03FFD02F041FF01F0A5
:1023BC0061FA606389E7C0460000A03FE12E6542E8
:1023CC0095BFD63335FA8E3C0000B443000034433D
:1023DC0087496EBC0000C07FB37400088974000884
:1023EC00C3740008D5740008E4730008E474000892
:1023FC00D80400200000E0420000C0405804002037
:10240C00580500203874000861740008D282FFFF60
:10241C000000DE420000C0C0920A863E6666E63EC0
:10242C00CDCCCC3D00007A448022024B12059A6040
:10243C007047C04600ED00E0F0B5464C012523691D
:10244C0085B058689A6891090F002F4029420AD12B
:10245C002A4208D086092E4205D02000E36D1030A8
:10246C00984705B0F0BD0125960706D5C6092E4242
:10247C0003D02000236E1030F2E7012556093143BA
:10248C00120A2A4029401143EBD041092942E8D0D5
:10249C00002F0FD021006D310978032951D0042170
:1024AC00256F2943216700210391D968039199680D
:1024BC000391039901210E420BD0256F294321670B
:1024CC00002140250191996801911968A94319606F
:1024DC000199002A08D00822216F0A4322670022A2
:1024EC0000929A680092009A226F002AB9D0E021DB
:1024FC005A688A435A602200DF396D3211700231FA
:10250C000842AED05A68A06E8A435A60002809D09F
:10251C00114B8363FEF700FB002803D04023226F8E
:10252C0013432367606E00289BD00B4B8363FEF72D
:10253C00F3FA002800D194E74023226F134323675A
:10254C008FE700220292DA6802929B680293029B48
:10255C0087E7C046D8040020CD090008E0221E48B9
:10256C00D200036870B5996911422ED09C69012183
:10257C001A68E50508D5D5090D4205D0456C2943E7
:10258C00416480214900D9610121650509D5D5092E
:10259C000D4206D0456C0731294341648021C900A6
:1025AC00D9610121A40509D5D2090A4206D002221B
:1025BC00416C0A43426480229200DA610B23416C25
:1025CC00194201D0FEF7B8FC70BD99691A68436BCB
:1025DC00002BF9D09847F7E758040020F8B51C20D9
:1025EC0004272D4B2D4A9C6E166820403C008440DD
:1025FC00996A0D68344211D03D420FD008688006AC
:10260C0002D40868B843086051680C4354609A6D52
:10261C00002A02D0283318009047F8BD02273C004E
:10262C00844034421AD03D4218D00868800607D442
:10263C000A250868A8430860190001202E31C877C4
:10264C00516818000C4354601A0000212D325B6D48
:10265C002830D1778B42E0D09847DEE7082427005A
:10266C0087403E42D9D02542D7D00E250C68AC43CA
:10267C000C6001210D0085402800546820435060F7
:10268C001A002E325966D1771A00180000212D320B
:10269C00DB6D2830D177DDE75805002000000240C3
:1026AC008022094BD968114204D00121DA60074A13
:1026BC00117140BF80221969114203D01A610022A6
:1026CC00024B1A717047C04600180240D805002012
:1026DC00024AD36C0133D3647047C04658040020BF
:1026EC00704770477047FEE78446081C6146FFE759
:1026FC001FB500F04FFB002801D40021C8421FBDBC
:10270C0010B500F0D3FA4042013010BD10B500F006
:10271C0041FB002801DB002010BD012010BDC0468C
:10272C0010B500F037FB002801DD002010BD0120A2
:10273C0010BDC04610B500F0E1FA002801DC002005
:10274C0010BD012010BDC04610B500F0D7FA00280E
:10275C0001DA002010BD012010BDC046F0B5464680
:10276C00D6464F464D024202C0B5520A6E0A470089
:10277C00B0463F0E4E00C40FD00094463B0082463C
:10278C00360EC90FAD098C426DD0B81B814600289E
:10279C004DDD002E00D188E0FF2F5AD08023DB04C2
:1027AC001D434B4601221B2B0ADC2B004A46494693
:1027BC00D3402022521A95402A00551EAA411A4392
:1027CC0053469A1A530100D4B9E09201960930008D
:1027DC0000F088FE05388640874200DDD4E03300E7
:1027EC00C71B20200137FB40C71BBE403200561EC2
:1027FC00B24100271A43530704D00F231340042B74
:10280C0000D00432530100D49CE07B1CFE2F00D17D
:10281C009AE09201520A9446DBB2D8056346E4076B
:10282C0018432043E0BCBA46B146A846F0BD002888
:10283C0049D0F31B002F00D0B6E05246002A60D0DE
:10284C00013B002B00D1FCE0FF2E00D0B4E00C00CB
:10285C004246002A78D08020C00310434202530A1B
:10286C009C46FF23D9E7B91B002971DD002E3FD010
:10287C00FF2FEED08023DB041D4301221B2907DC34
:10288C002A002023CA40591A8D406B1E9D412A43B1
:10289C005244530153D50137FF2F55D001237B49A7
:1028AC00134052080A401A43A5E7002D2CD00123EF
:1028BC005B429C46E1444B46002B00D1ADE0FF2F20
:1028CC0000D06EE7C5E7FE207E1C304260D1002FA1
:1028DC0000D093E05246002A00D1B6E0002D9CD0E7
:1028EC00521B500100D4C3E053460C00EA1A82E795
:1028FC00002D09D00139002900D18BE0FF2FBCD16C
:10290C00A7E70C0042463700FF2FA2D05202530A11
:10291C009C46FBB281E7FE210137394265D1002B81
:10292C007ED1002800D1AAE0002D00D175E72A0045
:10293C0052440027530102D5554B01371A40530717
:10294C0000D05AE7D208DFE70022FF23944664E761
:10295C000029E0D0F31B002F3ED0FF2E00D177E7EB
:10296C0080220100D20411438A4601221B2B08DC71
:10297C00524620215046DA40CB1A9840431E9841CB
:10298C0002433700521984E7414A3F1A324032E77A
:10299C0053465E1B73012DD4002E00D017E7002286
:1029AC0000240023944638E7FF2E00D14FE7802205
:1029BC005046D2041043824601221B2B08DC52469F
:1029CC0020245046DA40E31A9840431E98410243B3
:1029DC000C003700AA1AF5E6002893D0013B002B17
:1029EC004FD0FF2EC1D1424633E7FF2FACD0554418
:1029FC006A08A4E753460C00EE1AE8E65346002B8F
:102A0C0028D1002D00D022E78023DB039C46002434
:102A1C00FF2302E72A0052443BE753465A1BD1E6F8
:102A2C00002800D114E7002D00D112E78023DB032E
:102A3C001A4200D10DE74146194200D009E742463F
:102A4C0007E70C003700AA1ABCE6002D13D00C00C7
:102A5C00C446E2E6002D00D1FBE68023DB031A42DC
:102A6C0000D1F6E64046184200D0F2E60C00EFE644
:102A7C00002A00D063E7002200249446CDE6C44629
:102A8C00CBE62A003700524403E7C046FFFFFF7D28
:102A9C00FFFFFFFBF0B54F464646D6464502C0B594
:102AAC0047000C1C6D0A3F0EC60F002F66D0FF2F7F
:102ABC006CD00023EA00802599469A46ED04154314
:102ACC007F3F60026100430A9846090EE40F00291B
:102ADC0048D0FF2910D08022D800D204024390465F
:102AEC0000207F394A4633007F1A02436C4992001A
:102AFC008A586340DBB29746002B6DD10220FF3F12
:102B0C0033E0002398462600454682465346022B66
:102B1C0000D17FE0032B00D194E0012B17D03800BB
:102B2C007F3000285FDD6B0704D00F232B40042B74
:102B3C0000D004352B0103D538005A4B80301D4092
:102B4C00FE2867DCAD016D0AC0B202E01E00002059
:102B5C000025C0052843F6073043E0BCBA46B14611
:102B6C00A846F0BD002B2BD101204A4633004E491C
:102B7C00024392008A586340DBB29746002D13D172
:102B8C0004239946033B00279A469AE7002D05D16A
:102B9C0008239946063BFF279A4692E70C23994651
:102BAC00093BFF279A468CE7280000F09BFC762710
:102BBC00431F9D4000237F4299469A463F1A80E767
:102BCC00180000F08FFC4246431F76219A40494280
:102BDC00091A9046002085E7FF21032082E71E009A
:102BEC00FF200025B5E701231B1A1B2BAFDC9E37FA
:102BFC002900BD40D9406A1E95410D436B0704D096
:102C0C000F232B40042B00D004356B0144D501203D
:102C1C0000259EE7FF2000259BE780250026FF204E
:102C2C00ED0396E7002398468020C003054209D0A7
:102C3C004346034206D1454605436D022600FF205C
:102C4C006D0A86E78020C00305436D02FF206D0AE4
:102C5C007FE741466A014801824219D21B210025B7
:102C6C00013F012614006D005200002C01DB904244
:102C7C0001D8121A354301390029F3D1501E824173
:102C8C0038007F301E001543002800DD4BE7AAE713
:102C9C001A210125121AE4E7AD0100206D0A58E74C
:102CAC0024730008FFFFFFF76473000870B542003F
:102CBC004E024C0045026D0A120EC30F760A240E0A
:102CCC00C90FFF2A0FD0FF2C11D00120A24200D037
:102CDC0070BDB542FCD18B420DD0002AF8D1280032
:102CEC00451EA841F4E70120002DF1D1EBE70120AE
:102CFC00002EEDD1E9E70020EAE7C046F0B542002E
:102D0C0046024D024C00C30F760A120E6D0A240EB9
:102D1C00C80FFF2A1FD0FF2C10D0002A1FD17142E0
:102D2C007141002C01D1002D1ED000290ED18342FF
:102D3C001ED00221581E08400138F0BD002D26D1AE
:102D4C00002AF4D1714271410029F0D00028F4D14D
:102D5C0001204042F1E7002E19D1FF2CEED0002CBF
:102D6C00E5D1002DE3D1E4E70020002EE5D0E0E72B
:102D7C00A24205DCEADBAE4202D8E7D30020DCE756
:102D8C00414241414842022108400138D5E7022026
:102D9C004042D2E7F0B5420046024D024C00C30F50
:102DAC00760A120E6D0A240EC80FFF2A0DD0FF2CC6
:102DBC000FD0002A23D171427141002C0FD1002D6C
:102DCC000DD10020002E14D00DE0002E10D1FF2CC0
:102DDC0015D1002D0CD1002A03D17142714100296B
:102DEC0008D1834210D00221581E0840013800E05F
:102DFC000220F0BD0028FCD101204042F9E7002C54
:102E0C00EFD1002DEDD1EEE7A24205DCF2DBAE42B4
:102E1C0002D8EFD30020ECE7414241414842022165
:102E2C0008400138E5E7C046F8B557464E464546DA
:102E3C00DE464402E0B545000F1C640A2D0EC60F99
:102E4C00002D47D0FF2D4DD0002380209A469B4665
:102E5C00E400C00404437F3D7802430A99467A009B
:102E6C00FB0F9846120E4B4644D0FF2A11D0D800C7
:102E7C008023DB040343994600207F3AAD18474674
:102E8C0053467740691C0F2B3FD8724A9B00D3588E
:102E9C009F46FF35002B00D079E0524602231A439F
:102EAC0092460220EBE747464C4683465B46022B94
:102EBC0028D0032B00D1C6E0012B4FD100200024D9
:102ECC00C005FF0720433843F0BCBB46B246A946B9
:102EDC00A046F8BD002C71D104239A46033B002573
:102EEC009B46B9E7002C63D108239A46063BFF2585
:102EFC009B46B1E7002B50D1524601331A43924600
:102F0C000120BCE7FF200024DAE74846260C240405
:102F1C00220C0404240C4B4620001B0C504374431D
:102F2C005A435E431219030C9B189C4203D980220E
:102F3C0052029446664400041A04000C12189401C0
:102F4C00601E84411B0C920E9B1914439B011C4365
:102F5C001B0172D50120630804401C4308007F301C
:102F6C0000283CDD630704D00F232340042B00D042
:102F7C000434230103D580310800374B1C40FE2854
:102F8C00C0DCA401640AC0B29AE737008EE752464F
:102F9C0003231A439246032071E7484600F0A2FA35
:102FAC004A46431F9A402D1A91460020763D66E70B
:102FBC000C239A46093BFF259B464DE7200000F069
:102FCC0091FA7625431F9C4000236D429A469B46FE
:102FDC002D1A41E780240027FF20E40370E701232A
:102FEC001B1A1B2B00DD69E79E3120008C40D8405A
:102FFC00631E9C410443630704D00F232340042B1E
:10300C0000D0043463011AD50120002458E7802035
:10301C00C003044209D04B46034206D14C4604433C
:10302C0064024746FF20640A4AE78020C003044339
:10303C0064023700FF20640A42E729008EE7A401EE
:10304C000020640A3CE78020C00304436402FF2094
:10305C00640A35E7A4730008FFFFFFF7F0B5464696
:10306C00D6464F4643025B0ADA0094464A02C0B584
:10307C004400560A051CB046240E4E0092091F004F
:10308C0020009246ED0F360EC90FFF2E00D17FE0C7
:10309C00012251408D4251D0A21B9146002A00DCE6
:1030AC007EE0002E00D199E0FF2C00D18CE0802333
:1030BC005246DB041A4392464A4601231B2A08DC7B
:1030CC0053462021D340891A52468A40511E8A41C8
:1030DC0013436246D31A5A0100D4F3E09B019E09B4
:1030EC00300000F0FFF905388640844200DDF7E03F
:1030FC003200041B20200134E240041BA6403300A4
:10310C005E1EB341002413435A0704D00F221A4009
:10311C00042A00D004335A0100D4D6E0621CFE2CE1
:10312C0000D1DAE09B015F0AD0B2C0053843ED074D
:10313C002843E0BCBA46B146A846F0BDA21B914656
:10314C00002A63DD002E00D199E0FF2C3CD08023B7
:10315C005246DB041A4392464A4601231B2A08DCDA
:10316C0053462021D340891A52468A40511E8A4127
:10317C00134363445A0100D4A4E00134FF2C00D162
:10318C00ABE0012297491A405B080B401343BBE7A5
:10319C00002A32D08D4235D0FF2252429146A144B2
:1031AC004A46002A51D0301B002C00D09CE06346CC
:1031BC00002B00D1DFE00138002800D1F7E0FF2E12
:1031CC0000D099E00D004346002B00D185E080270C
:1031DC00FF031F437F02FF207F0AA6E75246002A07
:1031EC0074D0012252429046C1444A46002A00D172
:1031FC00C8E0FF2C00D05FE7E6E701225140A9426E
:10320C0000D049E7FF2252429146A1444A46002A87
:10321C0043D0311B002C00D18CE0FF2E00D192E06A
:10322C0080236246DB041A43944601231B2909DCE4
:10323C00202063466246CB40411A8A401100481E4A
:10324C0081410B433400534494E7FE22661C324206
:10325C0064D1002C00D082E06346002B00D1ABE09F
:10326C005346002B00D160E7634652469B1A5A0125
:10327C0000D4AAE0634652460D00D31A44E75246E6
:10328C00002A23D0012252429046C1444A46002AC9
:10329C0075D0FF2C00D05FE796E7FE26013426425E
:1032AC0053D1002872D16346002B00D193E05346D2
:1032BC00002B00D139E7634400245A0102D54A4A55
:1032CC00013413405A0700D020E7DB08FF2C00D153
:1032DC007AE75B025F0AE0B227E7FF20002724E7CA
:1032EC00414B241A33400FE7FF2E00D16AE78023AD
:1032FC006246DB041A43944601231B2809DC202474
:10330C0063466246C340201A82401000441EA0410E
:10331C00034352460D003400D31ADCE66346524692
:10332C009E1A730117D4002E00D0D9E60025002078
:10333C000027FAE66346002B44D0013900294CD013
:10334C00FF2E00D071E743463EE7FF2CC5D0524616
:10335C0062445308B6E763460D00D61AC0E66246CF
:10336C00002A16D15346002B00D02BE780270025CE
:10337C00FF20FF03D9E60D0043463400A6E7534671
:10338C006344F7E6634652469B1AA4E66246002A5B
:10339C00D9D05246002A00D116E78022D20313421C
:1033AC0000D111E74046104200D00DE70AE7524623
:1033BC000D003400D31A8EE65346002B08D00D00B6
:1033CC004746B2E64346340080E7002B00D079E74D
:1033DC0000250027A9E64746A7E653463400634478
:1033EC00C8E6C046FFFFFF7DFFFFFFFB42024B021A
:1033FC0040004900520A5B0A090E000EFF2806D055
:10340C000020FF2902D11800431E98417047FE3856
:10341C00002AFBD1F4E7C04641024200C30F490A1F
:10342C000020120E7E2A03D99D2A02D9094A981827
:10343C007047802000040143952A07DC9620821AED
:10344C00D1404842002BF3D10800F1E7963A914065
:10345C00F7E7C046FFFFFF7F70B5002813D0C317F6
:10346C00C5185D40C40F280000F03CF89E230100F5
:10347C001B1A962B0FDC082801DD08398D406D02D4
:10348C006D0AD8B202E0002400200025C0052843B4
:10349C00E407204370BD992B0BDD05222E00121A78
:1034AC00D64002001B3295402800451EA84135002D
:1034BC000543052901DD4A1F95402A00084E32407C
:1034CC00680709D00F202840042805D00432500189
:1034DC0002D59F2332405B1A9201550AD8B2D5E728
:1034EC00FFFFFFFB1C2101231B04984201D3000C9E
:1034FC0010391B0A984201D3000A08391B0998425B
:10350C0001D30009043902A2105C40187047C04670
:10351C000403020201010101000000000000000090
:10352C0002B4714649084900095C49008E4402BC4A
:10353C007047C04603B47146490840004900095A17
:10354C0049008E4403BC7047002243088B4274D35D
:10355C0003098B425FD3030A8B4244D3030B8B4288
:10356C0028D3030C8B420DD3FF22090212BA030C91
:10357C008B4202D31212090265D0030B8B4219D372
:10358C0000E0090AC30B8B4201D3CB03C01A524192
:10359C00830B8B4201D38B03C01A5241430B8B42DA
:1035AC0001D34B03C01A5241030B8B4201D30B03C3
:1035BC00C01A5241C30A8B4201D3CB02C01A5241EA
:1035CC00830A8B4201D38B02C01A5241430A8B42AD
:1035DC0001D34B02C01A5241030A8B4201D30B0296
:1035EC00C01A5241CDD2C3098B4201D3CB01C01AB0
:1035FC00524183098B4201D38B01C01A52414309BA
:10360C008B4201D34B01C01A524103098B4201D3A7
:10361C000B01C01A5241C3088B4201D3CB00C01A14
:10362C00524183088B4201D38B00C01A524143088C
:10363C008B4201D34B00C01A5241411A00D20146B1
:10364C00524110467047FFE701B5002000F0F0F83A
:10365C0002BDC0460029F7D076E7704703460B43FE
:10366C007FD4002243088B4274D303098B425FD36F
:10367C00030A8B4244D3030B8B4228D3030C8B429B
:10368C000DD3FF22090212BA030C8B4202D3121281
:10369C00090265D0030B8B4219D300E0090AC30B56
:1036AC008B4201D3CB03C01A5241830B8B4201D303
:1036BC008B03C01A5241430B8B4201D34B03C01AEC
:1036CC005241030B8B4201D30B03C01A5241C30A64
:1036DC008B4201D3CB02C01A5241830A8B4201D3D5
:1036EC008B02C01A5241430A8B4201D34B02C01ABF
:1036FC005241030A8B4201D30B02C01A5241CDD264
:10370C00C3098B4201D3CB01C01A524183098B42AE
:10371C0001D38B01C01A524143098B4201D34B0197
:10372C00C01A524103098B4201D30B01C01A5241FA
:10373C00C3088B4201D3CB00C01A524183088B4281
:10374C0001D38B00C01A524143088B4201D34B006A
:10375C00C01A5241411A00D20146524110467047DC
:10376C005DE0CA0F00D04942031000D340425340E1
:10377C0000229C4603098B422DD3030A8B4212D3A1
:10378C00FC22890112BA030A8B420CD389019211D3
:10379C008B4208D3890192118B4204D389013AD010
:1037AC00921100E08909C3098B4201D3CB01C01AE5
:1037BC00524183098B4201D38B01C01A52414309F8
:1037CC008B4201D34B01C01A524103098B4201D3E6
:1037DC000B01C01A5241C3088B4201D3CB00C01A53
:1037EC00524183088B4201D38B00C01A5241D9D26B
:1037FC0043088B4201D34B00C01A5241411A00D2EC
:10380C000146634652415B10104601D34042002BE7
:10381C0000D54942704763465B1000D3404201B566
:10382C00002000F005F802BD0029F8D016E770471B
:10383C007047C046002B11D1002A0FD1002900D1AE
:10384C00002802D00021C943081C07B4024802A179
:10385C004018029003BDC046D9FFFFFF03B4684671
:10386C0001B5029800F01EF8019B9E4602B00CBCFC
:10387C007047C0469E2110B5C905041CFEF764FFB5
:10388C00002803D1201CFFF7C7FD10BD9E21201C72
:10389C00C905FFF7E3FBFFF7BFFD80231B069C4622
:1038AC006044F2E7F0B557464E464546DE46E0B575
:1038BC0004000D009246994683B08B4230D82DD02F
:1038CC004946504600F0F6F829000600200000F0AA
:1038DC00F1F8331A9846203B9B4633D45A4653464C
:1038EC00934042461F00534693401E00AF423AD8C5
:1038FC00AF4200D178E05B46A41BBD41002B00DA3F
:10390C0075E0002200230092019301235A46934054
:10391C000193012342469340009328E08242CFD981
:10392C0000220023009201930C9B002B01D01C6001
:10393C005D600098019903B0F0BCBB46B246A94645
:10394C00A046F0BD424620239B1A5246DA4041461F
:10395C0013004A468A40170042461F435346934081
:10396C001E00AF42C4D900220023009201934346AB
:10397C00002BD9D0FB0772081A4346467B080EE091
:10398C00AB4201D1A2420CD8A41A9D4101202419AA
:10399C006D410021013E24184D41002E06D0AB4252
:1039AC00EED9013E24196D41002EF8D100980199F1
:1039BC005B4600196941002B24DB2B005A46444618
:1039CC00D3402A00E2401C005B461500002B2ADB8A
:1039DC0026009E40330026004746BE403200801A27
:1039EC009941009001919FE7A342BCD883E74246DE
:1039FC00202300219B1A0022009101920122DA401F
:103A0C00019286E7424620239B1A2A0046469A409A
:103A1C002300F340444613432A00E2401C005B465B
:103A2C001500002BD4DA42462F00202326009740A5
:103A3C009B1ADE403B003343CDE7C04670B5051EF4
:103A4C000ED0FFF74FFD9E2304001B1A962B0CDCA7
:103A5C00082801DD083CA5406D026D0AD8B201E0D2
:103A6C0000200025C005284370BD992B09DD0200FC
:103A7C0029001B3291404A1E91410522121AD54051
:103A8C000D43052C01DD621F95402900084E314085
:103A9C006A0709D00F202840042805D004314A01B8
:103AAC0002D59F2331401B1B89014D0AD8B2D9E79F
:103ABC00FFFFFFFB10B5002903D1FFF713FD2030EA
:103ACC0002E0081CFFF70EFD10BDC0460D488546F0
:103ADC00002103E00C4B5B58435004310B480C4B5A
:103AEC0042189A42F6D30B4A02E0002313600432C8
:103AFC00094B9A42F9D3FEF797FC03F021FA00F038
:103B0C0017F8FEE700200020607900080000002074
:103B1C003C0400203C04002090060020FEE700003E
:103B2C00014B024A1A61704758050020E00500203D
:103B3C008023F0B57B4D5B002A68A3B013430020B3
:103B4C002B60FCF7BBFF002811D1774B0130196CAF
:103B5C000143196480211A6C490502400E920E9A99
:103B6C00DA6B0A43DA63DB6B0B400D930D9B6F4CE6
:103B7C006F4A236806201A4080239B0013436D4E26
:103B8C00236033686C495843FFF7DEFC8023013017
:103B9C00DB0062691A4227D13823634FBA6813409D
:103BAC00FA68102B24D103210A40022A22D13A6848
:103BBC0062497A6811408022D2010A437A60002B54
:103BCC0009D13B685E4A13403B603B685D4A9B04ED
:103BDC005B0FDA4032607068FCF770FF002820D071
:103BEC004022594B9A61FEE70028D5D00138D0E726
:103BFC00002BDCD03B68524A802113403B60802371
:103C0C003A685B001343514A3B60D06CC9003B6877
:103C1C000B4241D07B68494A1A408023DB01134395
:103C2C007B603822BB681340102B44D080213B684A
:103C3C00474A890413403B60444BD86C3A680A42AB
:103C4C002FD1FA6843491140434A0A43FA60802253
:103C5C00396852040A433A608022F96852050A43D3
:103C6C008021FA60D86C89043A680A421ED0062377
:103C7C002A681A4243D0E023BA68DB011343BB60C5
:103C8C00BB6836480340BB603B6805909B0169D418
:103C9C0040222D4B9A61FEE7D36C1B1A022BB6D92E
:103CAC009EE7DA6C121A022AC8D999E7DA6C121A52
:103CBC00022AD9D994E70322FB681A40022A8FD131
:103CCC006E3213428CD1FE228021D2011A4009019E
:103CDC008A4285D1F822802192031A4089028A42B5
:103CEC0000D07DE7E022802112051A4089048A4227
:103CFC0000D075E75B0F012B00D071E7B7E7072306
:103D0C0002222968164C99430A4310492A60C86C50
:103D1C002A681A40022AAED0CA6C121AA242F7D9EB
:103D2C00B6E7C04600200240001002400070004080
:103D3C00FFF9FFFF0000002040420F00FF80FFFF53
:103D4C00FFC7FFFF0024F4000008005058040020B7
:103D5C00FFFFFFFE8C80C11102080222FFF0FFFF63
:103D6C00881300000722BB68382193431A000223F2
:103D7C001343BB60B04BB14A9C46D06CBC680C4042
:103D8C00102C00D032E1072329681940022900D9F0
:103D9C0032E1BB68AA4A1340BB60FCF70FFFBB685B
:103DAC00A84A1B051B0F9B00D3181F221B6A13402C
:103DBC00D84030607068FCF781FE0090002800D07D
:103DCC0066E7012604217B6D9F4A802513407B65A5
:103DDC00009BA0201F937B6BC00533437B637B6BE5
:103DEC0033400C930C9B7A6B0A437A637B6B0B40CE
:103DFC000B930B9B7A6B02390A437A637B6B8022A1
:103E0C000B400A930A9BA0235200DB059D629A612A
:103E1C0040238E498B6200993D3B1D911BA91E933B
:103E2C001B951C96FDF75AFC8022A02052001B9279
:103E3C00009A1BA9C0051D921E921C96FDF74EFC04
:103E4C0040231B93009B81481BA91D931E931C961A
:103E5C00FDF744FC7E4B7F481C93009B1BA91B95D4
:103E6C001D93FDF73BFCC121C2207B4A89005358AE
:103E7C0080001B021B0A53501560BB6B7749334300
:103E8C00BB63BB6B6D4D33400993099B13580B40BF
:103E9C00135080239B001360714B6C482B60714B4B
:103EAC00EE606B60009BAB602B616B61AB61EB6197
:103EBC002B622B0041331B780390634802920190D4
:103ECC000691002B2ED12B00009A40331A707B6B7D
:103EDC00A02033437B637B6B1BA933401093109B57
:103EEC00C023DB001B9312231C93009BC0051E9365
:103EFC0006231D961F93FDF7F1FB8021FA6B8903B6
:103F0C000A43FA63C522FB6B92000B400F930F9B85
:103F1C00029B02999B581B021B0A8B508023029A0E
:103F2C001B0413602B002422012141331A702B68CF
:103F3C004D4E1A68A8688A431A6069684B4A049601
:103F4C000A401A619A68E96832409A60012965D181
:103F5C008022120202439A605968454A20200A4383
:103F6C005A60DA6804990A40DA6069692A690A4376
:103F7C00A96909020A43DA60296AEA690A4301213C
:103F8C001A601A688C460A4329001A6000224131D3
:103F9C006A640870280042302A6302700878C6B23E
:103FAC000196202844D1403528782E0060453FD01A
:103FBC002420087060461D6885431D601D682D48CF
:103FCC00054060461D601D681D601D680543019815
:103FDC001D60087032700D78E8B20190254807908A
:103FEC00202D49D04023194A9361FEE7D36C1B1A4C
:103FFC00634500D8C2E64BE602212868984301438A
:10400C0029600D49D06C8C4629681940022900D1D1
:10401C00BFE6D16C091A6145F6D939E68422120241
:10402C0002439A60022997D1802212015A6093E7C9
:10403C004023064A9361FEE78813000058040020D1
:10404C00FF8FFFFF54720008FFCFFFFF00080050E6
:10405C00000031100004005000E100E0FF00FFFF01
:10406C000054004073216000FF7FFFFFFFFFFFF053
:10407C0000800002FFEFFFFF2420654608701868DF
:10408C00A84318601868059D284065461860186894
:10409C0028431860019B32700B70E1230C217A4E7F
:1040AC005B027360331D7948DB6F3060B260F26085
:1040BC0032617161B261F26132627262B26201901C
:1040CC00002B1DD1320080207C321370FA6B8002E1
:1040DC000243FA63FA6B02401292129A7A6BA02096
:1040EC002A437A637A6BC0052A401192119A0222F4
:1040FC001B911BA91C921D931E931F95FDF7EEFAA5
:10410C0024220121331DDA67326830691368756E19
:10411C008B431360B368F1690343706903430B432A
:10412C0010682B435A4D2840034313605368594879
:10413C000340F06803435360574BB0699A4201D077
:10414C00336A18439368554D2B400F2518439060E4
:10415C00D06A736AA8431843D062514882421FD177
:10416C00032080257A6D2D020240013A022A01D9E2
:10417C0000F0A0FF4B486030805CA94201D100F0F8
:10418C00A2FC082801D900F091FFFFF7D3F9E7074B
:10419C008F0739058F0779058F078F078F078C05D8
:1041AC000198824201D100F0D5FF3B48824201D0F8
:1041BC0000F077FFC02180207A6D09010A400001D0
:1041CC00824200D1C6E209D8002A34D08023DB0019
:1041DC009A4200D10BE3012300936DE08A42FAD19D
:1041EC00002B00D137E3012B00D13CE3022B00D193
:1041FC003BE3032B00D13AE3042B00D139E3052B2D
:10420C0000D138E3062B00D137E3072B00D123E391
:10421C002024082B00D11FE32419092B00D11BE308
:10422C0040340A2B00D117E37F3C0B2B00D013E357
:10423C008024640010E3FCF7ADFC736A002B33D0D0
:10424C00012B00D17AE2022B00D179E2032B00D1B1
:10425C0078E2042B00D177E2052B00D176E2062B15
:10426C0000D175E2072B20D02024082B1DD0241957
:10427C00092B1AD040340A2B17D07F3C0B2B14D1AE
:10428C008024640011E0C046E0050020004400409A
:10429C00F369FFCFFFCFFFFF00800040FFF4FF1159
:1042AC00003801405472000801242100FFF74CF93A
:1042BC000025002800D072E2DB4CDC4BA366002307
:1042CC00E3662367009B012B01D100F028FDA26A55
:1042DC002368002A49D0D10705D55968D448014034
:1042EC00E06A01435960910705D55968D1480140EE
:1042FC00206B01435960510705D55968CE480140E0
:10430C00606B01435960110705D559680498014049
:10431C00A06B01435960D10605D59968C748014087
:10432C00E06B01439960910605D59968C44801403A
:10433C00206C0143996051060FD55968C14D606CD2
:10434C0029400143596080214903884205D15968AD
:10435C00BD480140A06C01435960120605D55A684E
:10436C00BA490A40E16C0A435A605A68B849B94DD7
:10437C000A402A215A609A688A439A600122196875
:10438C000A431A602200002188321160EA6C1B6813
:10439C0000921B0701D500F0B7FC23681B685B0774
:1043AC000AD580212000AC4B009AC903FBF724FFEF
:1043BC00002801D000F0B3FC2023321DD36732005B
:1043CC000832D367002301217C363370AB652B6632
:1043DC006B66AB662B00A14A6965A1492A65E96544
:1043EC008D331B780092D9B2002B0BD12B008C3360
:1043FC00197080213A6C89020A433A643B6C0B4079
:10440C001393139B2C0002238D3423709348FBF7DA
:10441C00A7FE012323702378DAB2002B02D12B00E4
:10442C008C331A702C0002268D34286D2670FBF705
:10443C0097FE01222B0022708C331B78934201D102
:10444C0000F084FC26702C6D8648236A934323620B
:10445C00236A6268A169014060200143824884425A
:10446C0001D100F060FC0098844201D100F05BFCAB
:10447C007E48844201D100F056FCB34333430026FE
:10448C006260A161666323620823A2693100134351
:10449C000422A361A3691BA89343A361A369033AF4
:1044AC00A3612B008D331A7080238C359B016364C0
:1044BC002E70133202F066FD009B9C4214D1012237
:1044CC007B6BA02013437B637B6B1BA91340149362
:1044DC00149B40231B933E3B1C93C00503331D963A
:1044EC001E961F93FDF7FAF8614C624BE022236194
:1044FC0082235B0063610023D200E2618022A3610E
:10450C00236263626363A363236463642300920086
:10451C00A262F93AFF3AE26278322263793AE263B4
:10452C006D331B78DDB2002B5CD12300802101267A
:10453C006C331D703A6C49010A433A643B6CA02001
:10454C000B401693169B7B6B1BA933437B637B6BD6
:10455C00022733401593159B474BC0051B93032330
:10456C001C971E931D951F95FDF7B8F8434B112111
:10457C001800D9628C4601391963414A70312E30CA
:10458C00C7775D639963DD631D645D649D649D669F
:10459C0011683C4F9A6239401160902117681034B1
:1045AC003943674611603849384A5E671A67D966DD
:1045BC000F6056601A1DD5671A002D32D577344A14
:1045CC005D666265C6229D67DD671C65029B920075
:1045DC00C6779B5806990B4002998B508023029A00
:1045EC009B041360224C0222230040216D331A706D
:1045FC002269E06913688B431360E023DB00984267
:10460C0001D900F049FD80256D01984201D00023AD
:10461C00A363236C002B3DD1E023DB00984200D830
:10462C0098E30223236435E0E0050020010001003B
:10463C00FFFFFDFFFFFFFEFFFFFFFBFFFFEFFFFF95
:10464C00FFDFFFFFFFFFEFFFFFFF9FFFFFFFF7FF06
:10465C00FFB7FFFF58040020FFFFFF01004401409B
:10466C00E70300008CFFFEFF002C014000480140D6
:10467C00D804002000300140021000005805002032
:10468C00080002400F80FFFF000802408008024033
:10469C0080050020A6696369A16A3343266A334307
:1046AC00666A3343E66A3343266B3343A66B334364
:1046BC008026B6000E4033431360636B090C18431D
:1046CC00636C0126184304231940084305435560C5
:1046DC00D369B64900250B40D3612300A0206D336C
:1046EC0025671E7042231BA9C0051B931C961E96A2
:1046FC001F951D95FCF7F2FF3000FCF7C9F802235B
:10470C00A0201B931C931BA99B19C0051E931D95E0
:10471C001F95FCF7E3FF23002A0074333F36013565
:10472C001A705E7002330E2DF9D1FBF7F1FD6D346A
:10473C00002800D11EE3039B9E61FEE70224B4E532
:10474C000424B2E50624B0E50824AEE50A24ACE561
:10475C000C24AAE5002B1CD0012B3CD0022B3CD006
:10476C00032B3CD0042B3CD0052B3CD0062B3CD04F
:10477C00072B0FD02024082B0CD02419092B09D07F
:10478C0040340A2B06D07F3C0B2B03D180246400D1
:10479C0000E0012421008648FEF7D6FE022573684E
:1047AC0001930323019A5343984200D213E5019BD2
:1047BC001B03984200D90EE5082D00D97FE1280093
:1047CC00FEF7B8FE5D007D01AF007D01FE007D01AE
:1047DC007D017D0147010224DCE70424DAE706248D
:1047EC00D8E70824D6E70A24D4E70C24D2E7FCF750
:1047FC00E5F9736A002B1CD0012B20D0022B20D0A2
:10480C00032B20D0042B20D0052B20D0062B20D01E
:10481C00072B0FD02024082B0CD02419092B09D0DE
:10482C0040340A2B06D07F3C0B2B03D18024640030
:10483C0000E001242100FEF787FE042539E502245F
:10484C00F8E70424F6E70624F4E70824F2E70A2440
:10485C00F0E70C24EEE70124802021000002FEF793
:10486C0073FE08259BE70224F6E70424F4E70624EC
:10487C00F2E70824F0E70A24EEE70C24ECE7FCF757
:10488C0089F9716A0122002300292DD0022200230C
:10489C00012929D004220023022925D00622002335
:1048AC00032921D00822002304291DD00A22002329
:1048BC00052919D00C220023062915D0102200231B
:1048CC00072911D02022002308290DD040220023D3
:1048DC00092909D0802200230A2905D001220B299D
:1048EC0001D1802252000023716800240091002124
:1048FC00FEF7A0FF0300020E09021143009A1802F2
:10490C005308C01861412300FEF794FF0095294B12
:10491C00294AC318934200D95DE4284B1B68D86020
:10492C00CAE4716A0122002300292DD0022200233F
:10493C00012929D004220023022925D00622002394
:10494C00032921D00822002304291DD00A22002388
:10495C00052919D00C220023062915D0102200237A
:10496C00072911D02022002308290DD04022002332
:10497C00092909D0802200230A2905D001220B29FC
:10498C0001D180225200002309480021FEF752FF7A
:10499C0000250B020199040E234302024C08121944
:1049AC006B4110001900019A4FE0C046FFF7FFFF62
:1049BC000024F40000FDFFFFFFFC0F00E0050020C9
:1049CC00FCF7FCF8716A0122002300292DD0022289
:1049DC000023012929D004220023022925D00622F4
:1049EC000023032921D00822002304291DD00A22E8
:1049FC000023052919D00C220023062915D01022DA
:104A0C000023072911D02022002308290DD0402291
:104A1C000023092909D0802200230A2905D001226C
:104A2C000B2901D1802252000023716800250191CD
:104A3C000021FEF7FFFE0300020E1802019B090283
:104A4C0011435C08001969411A002B00FEF7F2FEB5
:104A5C005DE7716A0122002300292DD00222002378
:104A6C00012929D004220023022925D00622002363
:104A7C00032921D00822002304291DD00A22002357
:104A8C00052919D00C220023062915D01022002349
:104A9C00072911D02022002308290DD04022002301
:104AAC00092909D0802200230A2905D001220B29CB
:104ABC0001D18022520000238020000265E70123EF
:104ACC000020009323E7082800D995E0FEF732FD7B
:104ADC00F402940009009400500094009400940097
:104AEC006300002B1CD0012B36D0022B36D0032BAD
:104AFC0036D0042B36D0052B36D0062B36D0072BD0
:104B0C000FD02024082B0CD02419092B09D04034A9
:104B1C000A2B06D07F3C0B2B03D18024640000E0D1
:104B2C000124210075688C48FEF70EFD6B084000CF
:104B3C002900C018FEF708FD80B20300874A103B1D
:104B4C00934201D9FFF747FB0F23020000079A435A
:104B5C00400F33681043E2E60224E2E70424E0E766
:104B6C000624DEE70824DCE70A24DAE70C24D8E77D
:104B7C00FCF724F8A2E2012421007568D4E7022492
:104B8C00FAE70424F8E70624F6E70824F4E70A24F5
:104B9C00F2E70C24F0E7002B1CD0012B20D0022BC9
:104BAC0020D0032B20D0042B20D0052B20D0062B7B
:104BBC0020D0072B0FD02024082B0CD02419092B24
:104BCC0009D040340A2B06D07F3C0B2B03D1802418
:104BDC00640000E001248020210075680002A3E736
:104BEC000224F8E70424F6E70624F4E70824F2E7A5
:104BFC000A24F0E70C24EEE70123002000939CE745
:104C0C00002B1CD0012B2FD0022B2FD0032B2FD0FD
:104C1C00042B2FD0052B2FD0062B2FD0072B0FD0EA
:104C2C002024082B0CD02419092B09D040340A2B32
:104C3C0006D07F3C0B2B03D18024640000E00124C0
:104C4C00210075684448FEF77FFC6B082900C018EA
:104C5C00FEF77AFC80B20300404A103B934201D924
:104C6C00FFF7B9FA33685AE60224E9E70424E7E7C8
:104C7C000624E5E70824E3E70A24E1E70C24DFE750
:104C8C00FBF79CFF6CE2012421007568DBE7022432
:104C9C00FAE70424F8E70624F6E70824F4E70A24E4
:104CAC00F2E70C24F0E7002B1CD0012B20D0022BB8
:104CBC0020D0032B20D0042B20D0052B20D0062B6A
:104CCC0020D0072B0FD02024082B0CD02419092B13
:104CDC0009D040340A2B06D07F3C0B2B03D1802407
:104CEC00640000E001248020210075680002AAE71E
:104CFC000224F8E70424F6E70624F4E70824F2E794
:104D0C000A24F0E70C24EEE780212000144B009AD3
:104D1C008903FBF771FA002801D1FFF73EFB402312
:104D2C00104A9361FEE70E20022683430E4833435C
:104D3C00844207D00098844204D00C48844201D0AD
:104D4C00FFF79DFB0A480240FFF799FB4023054AF9
:104D5C009361FEE7012365E40024F400EFFF0000FB
:104D6C00FFFFFF0100080050002C014000480140EB
:104D7C00FFFCFFFF2378DDB2012BFBD1A020002428
:104D8C0041331BA9C0051B931F941C951D941E95A4
:104D9C00FCF7A4FC2000FBF77BFDA02002260323DC
:104DAC001BA9C0051D941E931F941B961C96FCF703
:104DBC0095FC4023A0201B931BA93B3BC0051D94D5
:104DCC001E941F931C96FCF789FCD24C236D1A6A17
:104DDC00AA431A621A6A1543CF4A1D62934205D040
:104DEC00009A934202D0CD4A934204D18022596C4E
:104DFC0012020A435A649A68C9490A40062A06D024
:104E0C0007398A4203D0012219680A431A60C5483F
:104E1C00FCF75EFDC448FCF75BFDC448FCF761FD84
:104E2C00E36C0093009AE36C9B1AFA229200934273
:104E3C0000D399E000231793230041331A78202ADA
:104E4C00F0D1802180202268090292690002114071
:104E5C000242E7D12200403210780128E2D001252D
:104E6C00157024221A706164E368013B5A42534165
:104E7C00AF4A5B421340AF4A9B1822685360E66C02
:104E8C0093695B092B40190093691B092B400B4359
:104E9C002AD09369102110221940134233D13300C8
:104EAC002020063AFBF728F90028BBD120232268E2
:104EBC00A14DD361220041321370230029004033ED
:104ECC0018701C2263311BA802F032F91C211BA89C
:104EDC00FBF7C6FC1C211BA8FBF764FF002847D07E
:104EEC004022964B9A61FEE7E16C891B0A29C7D9CF
:104EFC002100202241310A70616C0A436264220055
:104F0C00403213708EE7002133000A222020FBF779
:104F1C00F3F8011E86D1102320272268D361D761B4
:104F2C00179B012B0ED180235068DB010343536088
:104F3C00380033000A22FBF7DFF8002800D071E7B5
:104F4C002368DF61179B01331793179B002B8BD0C2
:104F5C002200202341321370626C134363642300DC
:104F6C00002240331A705DE74023039A9361FEE7F9
:104F7C00FBF7C9FC29001C227F311BA802F0D8F8D2
:104F8C001C211BA8FBF76CFC1C211BA8FBF70AFFC0
:104F9C00002803D04022694B9A61FEE7FBF7B3FC73
:104FAC00674D0E2229001BA81B3102F0C1F80E21FF
:104FBC001BA8FBF755FC0E211BA8FBF7F3FE0028E2
:104FCC0003D040225D4B9A61FEE7FBF79CFC290065
:104FDC000B22293118A802F0ABF80B2118A8FBF70B
:104FEC003FFC0B2118A8FBF7DDFE002803D0402264
:104FFC00524B9A61FEE7FBF786FC290014223431F0
:10500C001BA802F095F814211BA8FBF729FC14210E
:10501C001BA8FBF7C7FE002803D04022474B9A6120
:10502C00FEE7FBF770FC2900082248311BA802F0B0
:10503C007FF808211BA8FBF713FC08211BA8FBF722
:10504C00B1FE002803D040223C4B9A61FEE7FA26C1
:10505C00E56CB600E36C5B1BB34204D23948FBF73A
:10506C00C1FA002812D0FCF74FFD0224364B1B79F5
:10507C00002B02D03548FBF7B5FA354B1A68A24322
:10508C001A6020BF1A6822431A60EFE7E26CE36CE7
:10509C009B1A0A2BFBD9DDE7F02300251B01FFF738
:1050AC00B4FA80231B02994200D1A5E5012300200C
:1050BC000093D0E5A94251D1FBF76CFD736A002B2C
:1050CC0000D158E5012B00D159E5022B00D158E550
:1050DC00032B00D157E5042B00D156E5052B00D14D
:1050EC0055E5062B00D154E5072B00D144E52024CF
:1050FC00082B00D140E52419092B00D13CE54034A4
:10510C000A2B00D138E57F3C0B2B00D034E58024F2
:10511C00640031E558040020002C01400048014097
:10512C0007000100FD740008147500082D750008B7
:10513C0000F8FF0184280000547200080008005099
:10514C00D4720008AD1A0008D8050020411B0008D5
:10515C0010E000E080231B029942ADD0FBF71AFD52
:10516C00736A002B00D18EE5012B00D18FE5022B49
:10517C0000D18EE5032B00D18DE5042B00D18CE5FD
:10518C00052B00D18BE5062B00D18AE5072B00D12E
:10519C007AE52024082B00D176E52419092B00D1BF
:1051AC0072E540340A2B00D16EE57F3C0B2B00D00E
:1051BC006AE58024640067E500B51C4A430083B0AF
:1051CC005B08934219DDFF22D205934204DB011CDC
:1051DC00FDF744FF03B000BD694600F0F3FC032368
:1051EC000199184001280CD0022817D0002811D0A2
:1051FC000122009801F01AFBECE7002100F0B4FE4C
:10520C00E8E70122009801F011FB80231B069C4665
:10521C006044DFE7009800F0A7FEDBE7009800F0A1
:10522C00A3FE80231B069C466044D3E7D80F493F5E
:10523C0043001B0E7F3B10B5162B0BDC002B0FDB3A
:10524C000B4A1A41024204D08021C90319410818A3
:10525C00904310BD802BFCD1011CFDF77FFAF8E7C1
:10526C00C00FC0070133F4D1FE239B051843F0E7B0
:10527C00FFFF7F0000B51D4A430083B05B089342DB
:10528C001CDDFF22D205934204DB011CFDF7E6FE78
:10529C0003B000BD694600F095FC0323019918404A
:1052AC00012810D0022817D0002810D0009800F048
:1052BC005BFE80231B069C466044E9E7002200212C
:1052CC0001F0B4FAE4E7009800F04EFEE0E70122AA
:1052DC00009801F0ABFADBE70122009801F0A6FA86
:1052EC0080231B069C466044D2E7C046D80F493F3A
:1052FC0000B5104A430083B05B08934215DDFF22D2
:10530C00D205934204DB011CFDF7A8FE03B000BDDF
:10531C00694600F057FC022240001040013A121A74
:10532C000199009801F0FAFAF0E70122002101F04E
:10533C00F5FAEBE7DA0F493F70B5041C00F07CF886
:10534C000F4B051C1B785BB201330ED0211C201CAB
:10535C00FEF74CF8002808D1201C01F043FDFE217B
:10536C008905FDF7E7F9002801D1281C70BD01F073
:10537C00E1FD21230360034801F07AFD051CF4E7ED
:10538C00080000203075000870B5041C00F0B6F958
:10539C000F4B051C1B785BB201330ED0211C201C5B
:1053AC00FEF724F8002808D1201C01F01BFDFE217B
:1053BC008905FDF7BFF9002801D1281C70BD01F04B
:1053CC00B9FD21230360034801F052FD051CF4E7ED
:1053DC00080000203075000810B500F0E1FA10BD8F
:1053EC0070B5051C0C1C00F063FB124B061C1B78E3
:1053FC005BB2013311D0211C201CFDF7F7FF0028F4
:10540C000BD1291C281CFDF7F1FF002805D1002128
:10541C00201CFDF775F9002801D1301C70BD01F07E
:10542C0089FD212300210360081CFDF733FB061CBA
:10543C00F3E7C04608000020FE22F8B54300010047
:10544C00041C5B089205934211D00ADCFC229205E5
:10545C00934211DA8C229205934200DD7EE098484B
:10546C0004E0FDF7FBFD011CFDF714FBF8BD00206B
:10547C00002CFBDC9348F9E7002800DAC1E0FE20A1
:10548C008005FDF7EBFDFC218905FDF7CDFC041C27
:10549C0000F012FD8C49061C050B201CFDF7C4FC0A
:1054AC008A49FDF75BF9211CFDF7BEFC8849FDF725
:1054BC00D5FD211CFDF7B8FC8649FDF74FF9211CE1
:1054CC00FDF7B2FC8449FDF7C9FD211CFDF7ACFCCE
:1054DC008249FDF743F9211CFDF7A6FC8049071C06
:1054EC00201CFDF7A1FC7F49FDF7B8FD211CFDF741
:1054FC009BFC7D49FDF732F9211CFDF795FC7B499E
:10550C00FDF7ACFD211CFDF78FFCFE218905FDF795
:10551C0025F9011C381CFDF7BDFA311CFDF784FC84
:10552C002D03071C291C281CFDF77EFC011C201CCC
:10553C00FDF794FD291C041C301CFDF70FF9011C10
:10554C00201CFDF7A7FA011C381CFDF707F9291CD4
:10555C00FDF704F9011CFDF701F987E7FDF764FC81
:10556C005949051CFDF760FC5849FDF7F7F8291C53
:10557C00FDF75AFC5649FDF771FD291CFDF754FC4B
:10558C005449FDF7EBF8291CFDF74EFC5249FDF789
:10559C0065FD291CFDF748FC5049FDF7DFF8291C77
:1055AC00FDF742FC4E49061C281CFDF73DFC4D49FD
:1055BC00FDF754FD291CFDF737FC4B49FDF7CEF8E0
:1055CC00291CFDF731FC4949FDF748FD291CFDF765
:1055DC002BFCFE218905FDF7C1F8011C301CFDF7E1
:1055EC0059FA211CFDF720FC011C4148FDF736FD42
:1055FC00011C201CFDF732FD011C3E48FDF72EFD61
:10560C0034E7FE218905FDF7A9F8FC218905FDF792
:10561C000BFC2D49041CFDF707FC2C49FDF79EF8EB
:10562C00211CFDF701FC2A49FDF718FD211CFDF793
:10563C00FBFB2849FDF792F8211CFDF7F5FB2649E9
:10564C00FDF70CFD211CFDF7EFFB2449FDF786F857
:10565C00211CFDF7E9FB061C201C00F02DFC204949
:10566C00051C201CFDF7E0FB1E49FDF7F7FC211C77
:10567C00FDF7DAFB1C49FDF771F8211CFDF7D4FB93
:10568C001A49FDF7EBFC211CFDF7CEFBFE21890529
:10569C00FDF764F8011C301CFDF7FCF9291CFDF723
:1056AC00C3FB1349FDF7DAFC291CFDF757F8011C65
:1056BC00FDF754F8011C1048FDF7D0FCD6E6C046A7
:1056CC00DB0FC93FDB0F494008EF1138047F4F3A1D
:1056DC004611243DA80A4E3E90B0A63EABAA2A3EE7
:1056EC002EC69D3D6133303F2D57014039D11940B5
:1056FC006821A233DA0FC93FDA0F4940F0B5FE2317
:10570C004646D6464F464500C0B5041C06006D08FB
:10571C009B059D4200D1B5E000DDACE0FC239B0570
:10572C009D4210DAC8239B059D4200DBCCE08C49DE
:10573C00FDF714F8FE218905FCF7FCFF0300201C83
:10574C00002B00D092E0201C01F04CFB011CFE2031
:10575C008005FDF783FCFC218905FDF765FB81497C
:10576C00041CFDF761FB8049FCF7F8FF211CFDF7D9
:10577C005BFB7E49FDF772FC211CFDF755FB7C4958
:10578C00FCF7ECFF211CFDF74FFB7A49FDF766FC9B
:10579C00211CFDF749FB7849FCF7E0FF211CFDF7C4
:1057AC0043FB76498046201CFDF73EFB7449FDF710
:1057BC0055FC211CFDF738FB7249FCF7CFFF211C6F
:1057CC00FDF732FB7049FDF749FC211CFDF72CFB62
:1057DC00FE218905FCF7C2FF8146201C00F06CFB02
:1057EC006A4B071C9D425ADC011C050BFCF7B6FFEB
:1057FC00494682464046FDF74DF9011C5046FDF7DF
:10580C0013FB2D038046291C281CFDF70DFB011CE6
:10581C00201CFDF723FC291C041C381CFCF79EFFE4
:10582C00011C201CFDF736F9011CFCF797FF011C2D
:10583C005748FDF713FC011C4046FDF70FFC291CD3
:10584C00041C281CFCF78AFF011C5248FDF706FCBF
:10585C00011C201CFDF702FC011C4E48FDF7FEFB51
:10586C00002E03DC80231B069C466044E0BCBA4639
:10587C00B146A846F0BD011CFDF7F0FB011CFDF77D
:10588C0009F9F3E74449FDF7CFFA4149051C201CFF
:10589C00FDF7CAFA011C281CFCF760FFE6E7494635
:1058AC004046FDF7F7F8391CFDF7BEFA391CFCF73A
:1058BC0055FF011CFCF752FF3849FCF74FFF011C48
:1058CC003548FDF7CBFBCBE7011CFDF7ADFA2549BD
:1058DC00051CFDF7A9FA2449FCF740FF291CFDF72C
:1058EC00A3FA2249FDF7BAFB291CFDF79DFA2049C2
:1058FC00FCF734FF291CFDF797FA1E49FDF7AEFBA8
:10590C00291CFDF791FA1C49FCF728FF291CFDF70F
:10591C008BFA1A49061C281CFDF786FA1849FDF764
:10592C009DFB291CFDF780FA1649FCF717FF291C73
:10593C00FDF77AFA1449FDF791FB291CFDF774FA6F
:10594C00FE218905FCF70AFF011C301CFDF7A2F8AB
:10595C00211CFDF769FA211CFCF700FF86E7C04605
:10596C00CAF2497108EF1138047F4F3A4611243DB1
:10597C00A80A4E3E90B0A63EABAA2A3E2EC69D3D2E
:10598C006133303F2D57014039D119409999793FF6
:10599C002EBD3BB3DB0F493FDB0FC93F2EBD3B3365
:1059AC00F8B5FF254A00031C5208081CED05AA4255
:1059BC002BDC59009C464908A94226DCFE24A40590
:1059CC00A04234D0022487173C40DF0F3C4300290F
:1059DC001FD0002A24D0AA4231D0A94220D08A1A42
:1059EC00D2153C2A29DC002833DA3C3231DA00208B
:1059FC00012C3FD0022C35D0002C09D02449FCF7C7
:105A0C00ADFE2449FDF72AFB02E0191CFCF7A6FEAB
:105A1C00F8BD022C09D0181C032CF9D11E48F7E74D
:105A2C006346002B07DB1D48F2E71A48F0E7181C09
:105A3C0001F0B4F8ECE71A48EAE71848D8E7013C5B
:105A4C0091421CD00020022CE2D8164BA400E05846
:105A5C00DEE7011C181CFDF71DF801F0C3F901F07D
:105A6C009DF8C5E70A49FCF779FE011C0948FDF7CA
:105A7C00F5FACDE780231B069C466044C8E7022C50
:105A8C0003D8094BA400E058C2E70848C0E7C04659
:105A9C002EBDBB33DB0F4940DB0F49C0DB0FC93FC9
:105AAC00DB0FC9BF4075000834750008DB0F493F98
:105ABC00F8B54B005A08002B5AD0FF2443005B0862
:105ACC00E405A34254DAA24252DC934255DBC50FE3
