:020000040800F2
:1000000000200020A53D0008AB290008AF2900080A
:1000100000000000000000000000000000000000E0
:10002000000000000000000000000000AD290008F2
:100030000000000000000000A9290008992900081C
:10004000F53D0008F53D0008F53D0008F53D0008C8
:10005000F53D0008F53D0008F53D0008652900085C
:100060000000000091280008F53D0008F53D00085B
:10007000F53D0008F53D0008F53D0008F53D000898
:10008000F53D0008F53D0008F53D0008F53D000888
:1000900000000000F53D0008A9270008152700080A
:1000A000F53D0008F1250008F53D0008F53D000884
:0C00B000F53D0008F53D000800000000D0
:1000BC0010B5064C2378002B07D1054B002B02D032
:1000CC00044800E000BF0123237010BD7000002025
:1000DC000000000004730008044B10B5002B03D083
:1000EC000349044800E000BF10BDC04600000000FA
:1000FC0074000020047300080121094B1B68DA68A6
:10010C008A43DA60186A074A104206D1186A064A0E
:10011C00104202D11A688A431A6000207047C04608
:10012C008C0000201111000044040000F0B5114DAA
:10013C002E6CB4690440241A27007C427C418C420A
:10014C0001D0002014E00C4CE468E41AA242F0D276
:10015C00290020220831CB6F01201343CB672B00E1
:10016C0081331A702A0000238232803513702B7071
:10017C00F0BDC0468C0000200C010020F0B5059E9F
:10018C000468064D770D606831433D4319431204F2
:10019C00A843114301436160F0BDC046FF63FF03F8
:1001AC0070B504680E4EE5690D40A94201D10020DE
:1001BC0015E0F568AD1AAB42F5D22368094A134035
:1001CC002360A368A332FF329343A3602023021D54
:1001DC00D3670432D36700237C300370032070BDD7
:1001EC000C0100205FFEFFFFF7B5071DFB6F04003D
:1001FC000D000220202B48D10138002945D0002ABF
:10020C0043D08023A1685B01994204D12369002B60
:10021C0001D1054239D123007C331E780220012EF6
:10022C0033D0002601381870DE602123FB67214B88
:10023C00DB680193230054331A80023300931A8035
:10024C0080235B01994204D12369B34201D12E0072
:10025C001D00009B1B88002B0DD1FA234021200090
:10026C00019A9B00FFF79CFF00280DD120237C34C2
:10027C00FB67207009E0FA2380212000019A9B0083
:10028C00FFF78EFF002801D00320FEBD2268002D51
:10029C000BD133880236DB05DB0D9362009B009A91
:1002AC001B88013B9BB21380D3E72B7801359362FB
:1002BC00F4E7C0460C0100206A4BF7B51A006C320B
:1002CC0011780220012969D0012111701A006D32B8
:1002DC001178C8B2012900D0C2E0023111701900A6
:1002EC001C00743199641C214C3421801C000022A8
:1002FC004E341A672180190054310A801900563186
:10030C000A801A651A66DA6580229C6919691202DC
:10031C00944204D180220C68D20122430A605A6EA6
:10032C00514C524E1463524CDD69D462514C54639F
:10033C00002494634C6834404C60E024E400A542F3
:10034C000FD880249569E400A5420AD11C004E34D4
:10035C002588ED0723D44D6835404D6025886D0800
:10036C0025801C004E342488A4B20094541DE57FD3
:10037C00012D08D00125961DE577F57FEFB2012DF3
:10038C0016D00022E2771022196F0A431A67012255
:10039C006D331A700022334B6C331A70FEBD8025FE
:1003AC004E68ED0135434D6025886D080135D7E762
:1003BC000220F0770020D0631068D56C0468BC4331
:1003CC000460946C6560156D002D02D0546D966DB3
:1003DC0066601C26284C0F00A44664687433019494
:1003EC00146C0C3726400124B440019E34436646FD
:1003FC007460009C44609468102C2AD18760C360A0
:10040C000E23046823430360536C1C68E40304D577
:10041C0080241E68640034431C60002D04D08023AB
:10042C002C685B0023432B600123046805322343B3
:10043C0003600023D3770A6840331A420CD0202380
:10044C004A68002013434B6002234A6813434B60F5
:10045C00A0E78360C760D3E70A6813430B60EEE73D
:10046C00022097E70C010020070A0008FFBFFFFFDE
:10047C00090A0008EB0900080000024007B56B46AA
:10048C00D91D044B087001221869FFF7ADFE01203D
:10049C000EBDC0468C010020F0B5444F85B0FB6802
:1004AC0000240393424B1A00803212781D009446AC
:1004BC001A00813540322E78202E00D070E066462E
:1004CC00012E00D16CE001264032167022222A70D7
:1004DC001A001025823215701A0000250832D567D3
:1004EC001A006A321180AA210902D966314958666C
:1004FC005967190010886831FF2842D9FF230B80F7
:10050C0080235B042A4D2A6FEA6EAA2A3DD1002271
:10051C00EA662A006A321288FE2A00D8EB6E2A009C
:10052C002E00254940366832300012780091842123
:10053C00FFF724FE00236A6F204840361900337001
:10054C00824203D01E48824200D0F431184B186C02
:10055C0002680A430260632C1FD81800190081300E
:10056C0008310278202A07D0632C16D8FC68039A2D
:10057C00A41ACA6F002AF4D0632C0ED80833D86F93
:10058C000CE01288DB6E0A80BCE7AA22E96E12022C
:10059C009142BED180229204BAE7202005B0F0BD72
:1005AC00632CFAD8FC68039EA41B84E70C01002082
:1005BC008C000020551500080024008095160008BA
:1005CC00FD1200080023F0B5DFB0039308930993E4
:1005DC000A930AAA0F339B18FD221A709B4B0B909F
:1005EC001A008032180015781A00002498494032FD
:1005FC00CF6881300678202E00D0AEE0012D00D1DE
:10060C00ABE0012140321170212202701A0010203F
:10061C00823210701A0000200832D0670F220AA80C
:10062C0012185A661A006A321180A931D9668949A2
:10063C005967190010886831FF2800D880E0FF2323
:10064C000B8080235B04814A116FD16EAA297BD168
:10065C000021D1667D4D2A006A321288FE2A00D80C
:10066C00EB6E2A002E007C4940366832300012783E
:10067C0000918421FFF782FD00236A6F7748403692
:10068C0019003370824203D07548824200D0F23197
:10069C006E4B186C02680A430260632C00D9CFE0E1
:1006AC001D0019006A48813508312A78202A07D0A4
:1006BC00632C00D9C4E0C468CA6FE41B002AF4D0D0
:1006CC00632C00D9BCE00833DB6F002B00D0B7E003
:1006DC0002210EA8FFF7E0FE041E00D0B0E00500DA
:1006EC00070006000AAB1B7C0AAA527C1B021A43A9
:1006FC0004920690049B002B00D1A3E06B46049A55
:10070C001B8A402A00D940239BB219000EA80793DC
:10071C00FFF7C2FE002800D094E00590059B079AD5
:10072C00934200DB86E0059A0EAB9B5C092E78D8D1
:10073C00300003F05BF8171F242B323A47597964C9
:10074C001288DB6E0A807EE7AA21D06E09028842ED
:10075C0000D07FE7802189047BE7632C70D8CC68BC
:10076C00E41B47E7B53B5E425E4105980130C3B2DE
:10077C000593D3E7623B5E425E417600F5E75D1977
:10078C00EDB22C190326E4B20993EEE75D19EDB234
:10079C0064190426E4B20A93E7E75D19EDB29AB244
:1007AC00641905260392E4B2DFE703995D191A0276
:1007BC00EDB21143641906260391E4B20029D4D199
:1007CC000236D2E75D191EA97A1CCB55EDB2039BFC
:1007DC00641992B2E4B2934229D0802317005B00D3
:1007EC009A42C2D10726C0E7039B0137BFB202333E
:1007FC009F42BAD10024250027002600B5E7089AAD
:10080C009542F7D1A342F5D10B9C039B0A99099809
:10081C001EAAA047041EEED0069B01339BB2069382
:10082C00E8E70A2EE6D0A0E7092608939DE70826FC
:10083C00039F9AE7049B079A9B1A9BB2049359E770
:10084C000023069306985FB0F0BDC0468C000020D4
:10085C000C0100205515000800200080951600089A
:10086C00FD1200080B00083B70B503710023022237
:10087C001C0043718E1E855C01326419E4B2E318CE
:10088C0092B2DBB2B242F6DB4018821E0138147011
:10089C00037070BD10B5164A86B001920392059292
:1008AC00421E9041C221134A40421040104A090492
:1008BC0080180291A02104900022022001ABC905EE
:1008CC009C588C61C046C046C046C046C046C04617
:1008DC00C046C046C046C046C046C04604328861C9
:1008EC00142AEDD180239B028B6106B010BDC0464B
:1008FC0040008200800080FF10B5FFF7FDFB402216
:10090C00014B9A61FEE7C04600080050030000202E
:10091C00052B03D1013948424841C0B2704770B52C
:10092C00FA260A4CB600E568E3685B1BB3420AD2B0
:10093C000748FFF747FE002807D1E268E3689B1AD7
:10094C000A2BFBD9F0E7FFF7D7FF70BD0C01002095
:10095C0019090008030010B54218507894785B5CB4
:10096C002404000220431843D3781B06184310BDFF
:10097C00E021036810B55A688A435A6082224168A4
:10098C00520091420CD18021826809028A4203D024
:10099C008021C9008A4203D140211A688A431A6017
:1009AC008021826A89018A4206D11968074C21404C
:1009BC00196019680A431A60030001225D331A702A
:1009CC0000235C300370032010BDC046FFDFFFFF27
:1009DC00836A002219000831CA87DA877047836A54
:1009EC00032019684A6882434A601022196E0A4330
:1009FC001A6601225D331A707047704773B5202157
:100A0C00304D0368EE681B68846A0B4209D02E4B8C
:100A1C0022689A4242D1A0238022DB059A619A6215
:100A2C003CE023685A688A4302215A605A688A4318
:100A3C00C0215A6049019A680A4208D0EA68921BA0
:100A4C00632AF8D92000FFF793FF002831D18022C8
:100A5C0021688B68134208D0EB689B1B632BF8D979
:100A6C002000FFF785FF002823D1C0212268C90090
:100A7C0093680B4213D1A368002B06D10193236812
:100A8C00DA6801929B680193019B0023E3872300A2
:100A9C0001225D331A70236E002BB8D073BD137B0B
:100AAC00EB689B1B632BE3D92000FFF761FF002849
:100ABC00E1D02023226E134323662023226E13439E
:100ACC002366D8E70C010020003001401D4A10B508
:100ADC000368904206D08024E405A04202D01A4C50
:100AEC00A0420CD17024A3434C68234390420FD0F6
:100AFC008024E405A0420BD0134CA04208D0134C28
:100B0C00A04205D0124CA04202D0124CA04203D1FC
:100B1C00114C2340CC6823438024A3434C692343CA
:100B2C0003608B68C3620B688362904205D0084BEC
:100B3C00984202D0074B984201D10B690363012301
:100B4C00436110BD002C0140000400400020004017
:100B5C000044014000480140FFFCFFFFFA2170B542
:100B6C00124D04008900286802F054FE80230138DD
:100B7C005B04984201D3012070BD0D490D4A4860B9
:100B8C00C020136A00061B021B0A034313620020D9
:100B9C00072388600B60032CEDD8136AA1071B0296
:100BAC001B0A0B4313626C60E6E7C0460000002092
:100BBC0010E000E000ED00E0F8B50123411DCB771B
:100BCC00841DE27F022A03D00422C2631800F8BD00
:100BDC000E2602681568B54315601568466C9D4372
:100BEC0015603268114D2A4032601C22AC46056CEF
:100BFC000F4E2A40934077683B437360C26C836C02
:100C0C005A60036D002B06D065461A682A401A609C
:100C1C00436D826D5A600123E3770024CC77826B9D
:100C2C001300A242D2D090472300CFE7FFFEFFFF74
:100C3C0000000240064B074A9B685B045B0F9B005D
:100C4C009B581F221340044A1068D8407047C04676
:100C5C00001002401C7300080000002038231E4ABC
:100C6C0070B591681400194205D113681B489B0498
:100C7C005B0FD84070BD91681940082927D0916846
:100C8C001940102917D1D368D168DB437F22E5685E
:100C9C004906490F2D0A013115409B0709D110480F
:100CAC0002F0B8FDE1686843490F013102F0B2FD72
:100CBC00E0E70A48F4E791681940202909D09268C6
:100CCC0000201340182BD5D1FA20C001D2E70448DC
:100CDC00D0E780200002CDE7001002400024F40091
:100CEC0000127A00002310B5CA0708D5030041335F
:100CFC001A7828231A401A33282A00D0B0338A07CE
:100D0C0008D502002824413212782240A2420AD18E
:100D1C00442213434A0701D5B822134301680A68D9
:100D2C009A430A6010BDF422F3E70300282110B5A2
:100D3C0041331B78040002680B408B4225D1936928
:100D4C0093699168D068E068022816D1FC301B0CBE
:100D5C0089050340490F4B401900F8380140034204
:100D6C000BD1A36C0133A364A36C022B04D1A1643B
:100D7C0006334034D361217010BD04212000FFF7ED
:100D8C00B1FF002340342370F6E70823D361F8E762
:100D9C000022836A996B8A63D96B41338A631A7810
:100DAC00602A01D1403A1A70704703689A69920719
:100DBC0001D500229A6201229969114202D19969E6
:100DCC000A439A61704770B51F4C0200236C1021C6
:100DDC009D69280008400D4234D020251B4E99698E
:100DEC000800284029421BD0260010224036DA6128
:100DFC003000DD61FFF7D9FF226C1549536840368E
:100E0C000B405360220004230832D16F0B43D3678D
:100E1C00230081331D70002382342370337010E063
:100E2C00F168891A6429DAD922000832D36F2B436E
:100E3C00D367230081331D702300803482331870F4
:100E4C002070012070BDC0468C0000200C010020D9
:100E5C0000E800FEF0B5674D85B02F00664B0290A0
:100E6C0003911B7802244037202B11D13B004033D7
:100E7C001A78012A0CD00121802019705F4B19229D
:100E8C00DE6800023300FFF751F9041E03D0012481
:100E9C00200005B0F0BD2123574A290013702B0008
:100EAC00102282331A702B000833D867029B039AE6
:100EBC006B662B006A331A8068671A886831FF2AC0
:100ECC0022D9FF230B80296C4D4A4B681A404D4B9D
:100EDC0013434B60474D2B006A331B88002B39D1D1
:100EEC0020272B6C9A693A426ED0DF615A684649CA
:100EFC000A405A602B002A0081331F700023823273
:100F0C00803513702B70C3E71A88404B92B20A805D
:100F1C000093802384213800D2B29B04FFF72EF972
:100F2C00D8E73000FFF74FFF0028B0D1334BDB6818
:100F3C009B1B642B0ED9290020220831CB6F134345
:100F4C00CB672B0081331A702B00803582331870DD
:100F5C0028709CE702212A6C93690B42E1D02F0088
:100F6C006B6E6A371978013391626B663B88013B73
:100F7C009BB23B80264B1988013989B219803B887A
:100F8C00002BA7D00029A5D1330064228020FFF7C5
:100F9C00CDF8031E00D07AE73A88FF2A08D91C4AFC
:100FAC00296CFF3313804B681A4A1A401A4B8FE78F
:100FBC003A88174992B20A80280000938023842132
:100FCC00D2B240309B04A9E73000FFF7FCFE0028AA
:100FDC0000D05CE7094BDB689B1B642B00D880E7D7
:100FEC002A000832D36F3B43D3672B0081331F7029
:100FFC00AAE7C0468C0000200D0100200C01002047
:10100C00009800FC8420FF8100E800FE0020008096
:10101C00F4000020009C00FC8400FF0170B502006D
:10102C0005000026423241352B7816702D4A283B9C
:10103C00C2624685426C04000A434264022B24D8E7
:10104C000321FFF74FFE28232B70274B2663636386
:10105C00236880221968D2010E00164011421FD05D
:10106C001A682249A06B0A401A6000280CD0204B49
:10107C0000228363230040331A70FFF79DFD002884
:10108C0002D0A06B836B984770BD0721FFF72AFE37
:10109C002B78602B01D020232B7000232363D6E701
:1010AC0018688021020009020A40084211D01A680F
:1010BC001049E06B0A401A600028E5D00C4B8363A2
:1010CC00230040331E70FFF777FD0028DCD0E06B67
:1010DC00D8E72B784034602B01D1403B2B70227029
:1010EC00D2E7C0460000FFFFED130008FFBFFFFF73
:1010FC009D0D0008FF7FFFFF164B10B5C362002348
:10110C0002000363040020204132107053706363AB
:10111C004B0713D52368626A5B6A1370636A0133E9
:10112C006362238D002B09D0013B2385638D013B2A
:10113C009BB263850423626C134363642000072114
:10114C00FFF7D0FD102223684034DA6100232370AE
:10115C0010BDC0460000FFFF2022036810B5DA6105
:10116C005A6804001A4802405A60002222636263E3
:10117C00184AE262CA0605D51022DA610423626CB1
:10118C00134363642000FFF710FE03212000FFF7D8
:10119C00A9FD22004132636C1178602901D0002B2B
:1011AC0004D02000616CFFF739FF10BD11782129A4
:1011BC0008D1013911702200403442321178137079
:1011CC002370F2E711782229EFD10239F2E7C046F9
:1011DC0000E800FE0000FFFF030070B5002542335D
:1011EC001D70013B1A780400292A0AD1013A1A70A1
:1011FC0021230121036320004034FFF773FD257088
:10120C0070BD1A782A2AFBD1023A1A7022230221C5
:10121C000363F0E72022F8B5036804001D680F0093
:10122C00DA610721FFF75EFD8022236812025968FC
:10123C0020000A435A605A682B490A405A60FFF74B
:10124C00B4FD01236A0438D5A36B002B03D01B68B3
:10125C005B689BB263857B0711D504239F4323688E
:10126C00626A5B6A1370636A01336362238D002BBD
:10127C0005D0013B2385638D013B9BB26385638D58
:10128C00002B03D00423626C1343636422000023FD
:10129C002500423223631370666C636341359E42B2
:1012AC0010D02000616CFFF7B9FE2B78282B03D1EE
:1012BC0039002000FFF720FFF8BDED0B1D42CAD00E
:1012CC00E36BC2E72700E36A084A4037934208D031
:1012DC002000FFF781FF054AE26220232B703E704D
:1012EC00EAE72A78F9E7C04600E800FE0000FFFFB5
:1012FC00F8B5050040352B780400C66A0220012B96
:10130C0031D0012308092B70184250D01009184213
:10131C004DD0900BD20B84461043184243D0E76B50
:10132C00381E06D000201A4203D03B68586843424E
:10133C005841A36B002B06D06246D20703D51B681D
:10134C005B68002B01D001281ED1230041331A7891
:10135C00282A09D180229204964205D12000FFF759
:10136C00CBFE00202870F8BD102219782368DA61B2
:10137C002929F6D118498E42F3D02000FFF715FD2C
:10138C002000FFF729FFECE710222368DA61042321
:10139C00626C13436364114B1E42E2D12000616CFA
:1013AC00FFF73CFEDDE710222368DA61D9E7012361
:1013BC00080706D5D008184203D02000FFF7B5FC6B
:1013CC00CFE701238806CCD552091A42C9D0200098
:1013DC00FFF720FFC5E7C0460000FFFFFFFFFFFE41
:1013EC00F8B50700403716003A780400C36A0D00C0
:1013FC000220012A23D0012209093A7011423ED061
:10140C00310911423BD0628D002A29D12200413290
:10141C001178282914D1802189048B4210D12900FC
:10142C002000FFF769FE0123AA0606D576091E42A5
:10143C0003D029002000FFF7EDFE00203870F8BD26
:10144C00102110782268D1612928ECD12F488342D1
:10145C00E9D02000FFF7A9FC2000FFF7BDFEE2E772
:10146C0010212268D1610422616C0A436264284A0B
:10147C001342D8D12000616CFFF7D0FDD3E70122D5
:10148C0069071CD5B108114219D0628D002A0FD002
:10149C00042295432268616A526A0A70626A0132B8
:1014AC006262228D013A2285628D013A92B2628586
:1014BC00628D002AB7D1154A9342B4D0CCE70122F1
:1014CC00290706D5F108114203D02000FFF72DFCA7
:1014DC00A9E70122A907A6D571081142A3D0628DF4
:1014EC00002A0DD0636A2268197801339162636215
:1014FC00638D013B9BB26385238D013B238592E772
:10150C00034A134200D08EE7A6E7C0460000FFFF57
:10151C00FFFFFFFE030070B50024202205004233BC
:10152C001C70013B197840351A70212907D1112301
:10153C00446303632039FFF7D5FB2C7070BD122375
:10154C00022103634463F6E7F7B5070040373B78A5
:10155C0004000D0016000220012B1DD001230A09E6
:10156C003B701A4219D032091A4216D01022236845
:10157C002000DA610423626C13436364FFF715FCEB
:10158C000123AA0606D576091E4203D029002000A5
:10159C00FFF7E2FD00203870FEBD01236A0713D56A
:1015AC00B2081A4210D003339D432368626A5B6A07
:1015BC001370636A01336362238D013B2385638D52
:1015CC00013B9BB26385DBE70123AA0707D57208B1
:1015DC001A4204D0636A226819789162EAE70123FF
:1015EC002A0634D5B2091A4231D0628D2368002AFA
:1015FC0021D0208D00281ED15968638D8905890D55
:10160C00FF2B08D9FF228023228500905B04200049
:10161C00FEF7B4FDB4E7628DE36A92B29C46194BB7
:10162C002285D2B29C4502D0E36A0090EFE780237A
:10163C0000909B04EBE75B689B0103D42000FFF751
:10164C0069FF9DE740212000FFF7E8FC98E70123A4
:10165C006A0600D494E7B2091A4200D190E7638D70
:10166C00002BEFD123685A68920100D588E7E16A14
:10167C00044A9142E2D180225968D2010A435A604D
:10168C007EE7C0460000FFFF37B5050040352B78DC
:10169C0004000220012B1FD0012308092B701842D3
:1016AC001BD01009184218D0102223684148DA6167
:1016BC00616C0C3A0A436264626B6021824203D013
:1016CC003D48824200D094311A6820000A431A60C7
:1016DC00FFF76BFB002028703EBD0123080646D5A2
:1016EC009009184243D0402123681A688A431A6033
:1016FC00628D002A2FD05968638D8905890DFF2BC7
:10170C001BD9FF23238580235B040020228D0090AE
:10171C00D2B22000FEF732FD638D228D9B1A9BB254
:10172C006385230041331A7823681968222A0FD164
:10173C00802212020A431A60CCE7638DE26A238589
:10174C001E4B9A4201D0E36ADFE780239B04DCE75F
:10175C008022D201EEE75B689B0103D42000FFF7E7
:10176C00D9FEB7E740212000FFF758FCB2E7012370
:10177C00480613D59009184210D0638D002BF1D177
:10178C0023685A689201A5D4E16A0C4A9142E5D1CA
:10179C0080225968D2010A435A609BE701238806CC
:1017AC0000D497E752091A4200D193E72000FFF7C3
:1017BC00D3FC8FE795160008FD1200080000FFFF10
:1017CC000023F0B585B00A681400DC4001D105B0E7
:1017DC00F0BD012614009E4034400294324200D1E8
:1017EC008BE04A6815000192102295430395022D57
:1017FC000DD107240F251C40A400A540DA08920047
:10180C008218176AAF430D69A5402F431762032254
:10181C005C00A240D543AC46032507689743019A68
:10182C002A40A240039D3A43013D0260012D0FD88E
:10183C00624685681540CA68A2402A4382604568A2
:10184C00019AB5430126120932409A402A4342605C
:10185C006546C2682A408D68A54080242A43C26030
:10186C00019A6405224248D003250F271D40ED0044
:10187C00AF40234A9C08A400A418266E0022BE4345
:10188C00A027FF05B8420CD01E4F0132B84208D039
:10189C001D4F0132B84204D01C4F0132B84200D067
:1018AC000232AA4032432266194A029CD66F029D2C
:1018BC00019FE4433543FF0301D435002540D56730
:1018CC00144D029EEA6F019F1643BF0301D42240C0
:1018DC0016000B4AEE671668029D019F3543FF0206
:1018EC0001D43500254015605568029E019F2E439A
:1018FC00BF0201D425402E005660013363E7C04679
:10190C00001802400004005000080050000C005069
:10191C00041802400818024070B5050001F042F8A6
:10192C000400044B290082B21869FEF75DFC20000C
:10193C0070BDC0468C0100200023F0B505000C00E2
:10194C000A2787B002AA137305AE3900280001F0EC
:10195C0061FF731E009039002800019301F0E0FF35
:10196C00013C3031731E1970002C11D12E22B31E84
:10197C001A70092D09D830232500033E337030002E
:10198C00FFF7CAFF401907B0F0BD1E00009DDCE751
:10199C00019E092DFAD80025AC42F0DD3020FEF76F
:1019AC006DFD05002E20FEF769FD2D18013CE6D3D8
:1019BC003020F8E7030010B5002802D0FFF7ACFF89
:1019CC000300180010BD10B5041E02D0FFF7A4FFD1
:1019DC0004000248FFF7A0FF001910BDAC7400080A
:1019EC0070B504000E00002809DA0648FFF794FFD2
:1019FC00310005006042FFF79FFF401970BDFFF7F3
:101A0C009BFFFBE7AF740008F0B58BB06B4614007E
:101A1C000022053306000D00DA77012900D80A25CB
:101A2C0009AF3000290001F07BFF0300CAB20800A7
:101A3C0031001E0013003733013CDBB2092802D8F9
:101A4C0013003033DBB2013F3B708D42E9D90025E6
:101A5C00012C09D16B46D91C30230B70054B22008D
:101A6C001869FEF7C1FB25003800FFF755FF281851
:101A7C000BB0F0BD8C010020F8B50E00011C051C4C
:101A8C0001F01AFE002805D03748FFF745FF040087
:101A9C002000F8BD6C0064083449201C01F00CFED9
:101AAC00002807D13149201C00F0A0FF002801D1EB
:101ABC002F48EAE72F49281C00F0A2FF002801D08C
:101ACC002D48E2E72D49281C00F086FF0028F7D1AD
:101ADC000021281C00F080FF041E06D02D20FEF7EC
:101AEC00CDFC802304001B06ED18FC20002780058C
:101AFC00BE4205D02249013701F032F9FFB2F7E7B7
:101B0C00291C00F091FF051C02F01AF8070002F0E6
:101B1C00FBF8011C281C01F007FC00220A21051C03
:101B2C003800FFF771FF0419002E03D02E20FEF7AA
:101B3C00A5FC2418013EF6B2FF2EA9D01049281C92
:101B4C0001F0D8FA051C01F0FBFF00220A21070066
:101B5C00FFF75AFF2418380002F0D6F8011C281C95
:101B6C0001F0E2FB051CE5E7B1740008FFFF7F7F85
:101B7C00B5740008FFFF7F4FB9740008FFFF7FCFDB
:101B8C000000204170B51E00140000230A2820D14B
:101B9C0004291ED11048FFF70DFF20001E30FFF75F
:101BAC0012FF0E48FFF706FF2000FFF70CFF0C4852
:101BBC00FFF709FF2825AE4207D90A48FFF7FAFEBE
:101BCC006019FFF700FF1E35F5E70748FFF7A4FE85
:101BDC000123180070BDC046BD740008D074000805
:101BEC00E3740008FD740008AC7400080368144A20
:101BFC0082B093420BD18020124A8002116C0143B7
:101C0C001164136C03400093009B02B070470E4AA2
:101C1C009342FAD180200B4AC002116C014311642B
:101C2C00C521136C890003400193019B074B0848A5
:101C3C005A5802405A508022D2031A60E5E7C04637
:101C4C0000440140001002400048014000E100E067
:101C5C00FFFF00FF70B5124C1C22743400212000D1
:101C6C0005F038FB01258023A571E371637525759B
:101C7C00FEF722FB64220B4B0B495B695A630B4B3F
:101C8C001B68DA682A43DA609A680A40062A05D08B
:101C9C0007398A4202D01A6815431D6070BDC046D0
:101CAC000C0100208C010020070001008C0000209A
:101CBC00F0B50600140000278BB0012800D0CDE34E
:101CCC00072900D0CAE313790893537909939379C0
:101CDC000193D3790393137A0493537A0593937AEC
:101CEC000693D37D0793537D034200D198E31000F4
:101CFC001131FEF72FFE1C2105002000FEF72AFEF5
:101D0C00242102902000FEF725FEFE4B04001A0051
:101D1C0054321670029A9F651A66DD655866FEF796
:101D2C00EBF94022F84B9A62099BF8481E02089B7B
:101D3C001E43FFF73FFE07210298FFF751FEF448C0
:101D4C00FFF738FE07212800FFF74AFEF148FFF79E
:101D5C003AFEF148FFF72EFE03212000FFF740FE6C
:101D6C00EE48FFF730FEEE48FFF724FE00220A2172
:101D7C000798FFF749FEEB4C2000FFF7CDFDEA4832
:101D8C00FFF718FE00220A213000FFF73DFEE74F57
:101D9C003800FFF70FFE02220A210198FFF734FEEC
:101DAC003800FFF707FE02220A210398FFF72CFEEA
:101DBC00DF48FFF7FFFD02220A210498FFF724FEFB
:101DCC00DC4F3800FFF7F6FD02220A210598FFF7D9
:101DDC001BFE3800FFF7EEFD02220A210698FFF7E2
:101DEC0013FE2000FFF798FD0E20019B0C21C01A5A
:101DFC0001F09AFD96225201B618361803000C20F9
:101E0C005843019B0521C0189923033858430230CD
:101E1C0001F08AFD039B6421C4186E20FF307043CF
:101E2C002418B01024184942300001F07DFDC8215F
:101E3C0024184900300001F077FD241804980C3860
:101E4C0001F070FCBC4900F08BFF061C059801F0FA
:101E5C0069FCBA4900F084FF011C301C00F0E4FD61
:101E6C00061C069801F05EFCB54900F079FF011CD8
:101E7C00301C00F0D9FD0021019000F0ADFD0028D0
:101E8C0000D0EEE2AF4BE418280001F04BFCAE4959
:101E9C0001F030F9AD4B0790E01801F043FCAC4970
:101EAC0000F05EFFAA49041C019800F059FF011CC8
:101EBC00201C00F0B9FDA749041C01F01BF9011C02
:101ECC00A54801F031FA211C01F014F9A34900F0E6
:101EDC00ABFDA34903F02AFCA249051C01F00AF949
:101EEC0003F06EFB291C0490281C00F09DFD9D49FD
:101EFC0001F000F903F064FB9B490690281C01F0EB
:101F0C00F9F8984901F0F6F803F05AFB9749059057
:101F1C00201C01F0EFF8964900F086FD211C01F021
:101F2C00E9F8944900F080FD8D4903F0FFFB9249DC
:101F3C000390201C01F0DEF8011C904801F0F4F92C
:101F4C00884901F0D7F8051C03F0FEFA8C49071CF0
:101F5C00201C01F0CFF88B4900F066FD211C01F02C
:101F6C00C9F8011C884801F0DFF9211C01F0C2F806
:101F7C00864900F0F5FE011C854801F0D5F985492C
:101F8C00061C381C01F0B6F8011C301C00F04CFD8E
:101F9C00071C281C03F014FB7F49061C201C01F0B5
:101FAC00A9F8011C7D4801F0BFF9211C01F0A2F831
:101FBC00011C7B4801F0B8F9049901F09BF87949B0
:101FCC00051C201C01F096F8011C774801F0ACF9B7
:101FDC00069901F08FF8011C281C00F025FD7349AF
:101FEC00051C059801F086F8011C281C00F01CFD4E
:101FFC00039900F019FD6E4901F096F96D49051C25
:10200C00301C01F077F8011C281C01F08DF95449A3
:10201C0003F08CFB5349061C381C01F06BF803F0E1
:10202C00CFFA5049051C301C01F064F803F0C8FAD3
:10203C00011C281C01F05EF803F04CFB5E49059076
:10204C00201C01F057F8011C5C4801F06DF9211CB3
:10205C0001F050F8011C5A4801F066F9FC21041CEF
:10206C008905381C01F046F83E4901F043F803F0AD
:10207C00E5FA011C01F03EF80399051C081C00F060
:10208C00D3FC384901F036F8061C03F099FA071C0A
:10209C00301C03F059FA81210890C905039801F00E
:1020AC0029F8304901F026F803F08AFA391C061C8D
:1020BC00281C01F01FF8211C071C201C00F0B4FC8C
:1020CC00049901F017F8011C381C01F02DF981213D
:1020DC00071CC905201C01F00DF8291C01F00AF899
:1020EC00049901F007F8089901F004F8011C381C58
:1020FC0000F09AFC291C071C281C00F0FBFFFC219B
:10210C0060E0C0468C0100200008005041750008BA
:10211C004C75000851750008547500086575000869
:10212C0068750008AC7400086E750008AF74000880
:10213C00FE740008FB7400080000C0410000B444A9
:10214C0000C0A847D382FFFF95BFD633A797DAFF0D
:10215C0000AD0E47882A21390D9F0C47BAC3B243F4
:10216C000000B44335FA8E3C00004040D1F69E3955
:10217C00C5A00C47B53B8C435CC4F144CB16FA426A
:10218C002FA2ED3A3BAA1A3A8F423B42000061451E
:10219C00AB83BB411B7B273B8BE16A37EDD79D3B68
:1021AC00AE11F53FF6CFD3385CC8A33CEC8497391D
:1021BC002E73BA3B8CA19C3B080B0834E35030388F
:1021CC008CE0883C890500F095FF311C00F092FFF3
:1021DC00011C381C01F0A8F8D549051C201C00F086
:1021EC0089FF211C00F086FF069900F083FF011C7B
:1021FC00281C01F099F8CF4900F07CFF069002985A
:10220C0001F090FACC4900F075FFCC4900F072FF58
:10221C00029003F0D5F90390059803F0D1F9061C50
:10222C00029803F091F90490059803F08DF9011CC4
:10223C00049800F05FFFC2490890019800F05AFF23
:10224C00079900F0F1FB069900F0EEFBBB4900F09A
:10225C0051FF051C03F078F9311C041C039800F0A5
:10226C0049FF211C061C089800F044FF011C301C7F
:10227C0000F0DAFB03F02EFAAE4900F03BFF071C2E
:10228C00281C03F09DF9051C059803F0D7F9211CB7
:10229C00061C039800F02EFF311C041C049800F05F
:1022AC0029FF011C201C01F03FF8011C281C03F025
:1022BC0039FAA04900F01EFFA24900F0B5FB0390CB
:1022CC00029803F0BBF90899051C9F4800F048FDE3
:1022DC00291C041C301C00F00DFF011C201C01F0FB
:1022EC0023F803F0CFF9934900F004FF0699041C7E
:1022FC00079800F099FB80231B069149061CC01817
:10230C0000F02EFD211C051C201C01F0D5F9002825
:10231C0000D1AFE00021381C00F072FB291C002812
:10232C000AD08849301C00F0FFFF80231B0684492B
:10233C00C01800F015FD011C019800F0F5FF834C4E
:10234C00051C0021281C00F047FBFE2189050028F4
:10235C0000D1A2E0281C00F067FB051C7C48FFF7AD
:10236C0029FB02210398FFF787FB7A4E3000FFF719
:10237C002AFB7948FFF71EFB0221381CFFF77CFB78
:10238C003000FFF720FB7548FFF714FB0321281CD6
:10239C00FFF772FB724E3000FFF7BEFA7148FFF781
:1023AC0009FB0321201CFFF767FB3000FFF7B4FA91
:1023BC003000FFF7B1FA211C201C01F07DF96A4EA8
:1023CC00002800D175E030000E220021743004F09A
:1023DC0081FF6649281C00F08DFE01F083F96F28FF
:1023EC0000DD7020FF2268230121944600257436FD
:1023FC00984200DD85E0B573083B1A0001360832BF
:10240C00F6D1FDF759FF5A49381C00F0F9FA594B2F
:10241C00002800D182E0FA225B6992005A631CE02A
:10242C00D37A0322534C1340220054321278002AE0
:10243C0009D0032B07D15048FFF7C5FA236EE56D81
:10244C000293646E70E44D48FFF7BDFAA36D01333F
:10245C00A3651E2B01D1FFF7FDFB012738000BB044
:10246C00F0BDFE21464B01988905E41800F0DCFA1A
:10247C00019009E53249201C00F072FC011C281C5B
:10248C0000F052FF011C019800F04EFF2D49051C75
:10249C00201C00F065FC041C53E7281C00F0B0FA6B
:1024AC00002800D15AE7FE21281C890500F03CFFCA
:1024BC0053E7FE20211C800500F036FF314900F067
:1024CC0019FE01F00FF96E2800DD6F203100682332
:1024DC000124743101910022984208DB08218C46BA
:1024EC009C44604503DA2100C21A9140CAB201999A
:1024FC00083B0A700A00013201921A000832EAD134
:10250C0067E71A000832904202DB6246B27373E747
:10251C000C00C21A94402200013AF7E71A49381C01
:10252C005C6900F059FA002830D06423636394E7A7
:10253C000000A03FE12E654295BFD63335FA8E3CA4
:10254C000000B4430000344387496EBC0000C07FD8
:10255C007B750008517500088B7500089D75000887
:10256C00AC740008AC7500080C0100200000E242BD
:10257C000000C0408C01002000750008297500087F
:10258C00D282FFFF0000E0420000C0C00D49381CA1
:10259C0000F0B0FD03F014F8FE21890500F044FAB8
:1025AC00094900F0A7FD094900F03EFA084900F07E
:1025BC00A1FD01F0C5FAFA239B00984200D918003E
:1025CC0060634AE7920A863E6666E63ECDCCCC3D19
:1025DC0000407A448022024B12059A607047C04634
:1025EC0000ED00E0F0B5464C0125236985B0586834
:1025FC009A6891090F002F4029420AD12A4208D02B
:10260C0086092E4205D02000E36D1030984705B0A6
:10261C00F0BD0125960706D5C6092E4203D0200031
:10262C00236E1030F2E7012556093143120A2A4075
:10263C0029401143EBD041092942E8D0002F0FD09B
:10264C0021006D310978032951D00421256F2943CC
:10265C00216700210391D96803919968039103992B
:10266C0001210E420BD0256F294321670021402503
:10267C000191996801911968A94319600199002A7F
:10268C0008D00822216F0A432267002200929A6820
:10269C000092009A226F002AB9D0E0215A688A432E
:1026AC005A602200DF396D32117002310842AED00F
:1026BC005A68A06E8A435A60002809D0114B836374
:1026CC00FEF77AFA002803D04023226F13432367C6
:1026DC00606E00289BD00B4B8363FEF76DFA0028CD
:1026EC0000D194E74023226F134323678FE7002226
:1026FC000292DA6802929B680293029B87E7C046BB
:10270C000C010020DD090008E0222348D200036CF4
:10271C0070B59969114237D09C6901211A68E50599
:10272C000AD5D5090D4207D005000835EE6F3143A7
:10273C00E96780214900D961012165050BD5D509CF
:10274C000D4208D005000835EE6F07313143E967BB
:10275C008021C900D9610121A4050BD5D2090A42F7
:10276C0008D0010002220831CC6F2243CA678022B4
:10277C009200DA6103000833D96F0B23194202D09F
:10278C004030FEF74BFC70BD99691A68436F002B03
:10279C00F9D040309847F6E78C0000200221354AEA
:1027AC0013681869084207D0D868084204D0053964
:1027BC00196199690021117704211869084207D021
:1027CC00D868084204D00939196199690021117738
:1027DC0008211869084207D0D868084204D011397A
:1027EC001961D9690021117710211869084207D0A5
:1027FC00D868084204D021391961D96900211177B0
:10280C000122196911420DD0D96811420AD0033A3C
:10281C001A61194A934205D14021184A506908425D
:10282C0025D0916280221969114205D0D9681142D4
:10283C0002D0023AFF3A1A611A69D20504D5DA6855
:10284C00120601D50E4A1A6140221969114204D0B0
:10285C00D968114201D0813A1A61202219691142BA
:10286C0004D0D968114201D0413A1A617047916184
:10287C00D8E7C0468C0000200048014000080050FA
:10288C00FFFEFFFFF8B5324B04271800A830046890
:10289C001C2020403C0084402E4A996E16680D681E
:1028AC00344213D03D4211D00868800602D4086827
:1028BC00B843086051680C4354601A00983212688F
:1028CC00002A02D0683318009047F8BD02273C005C
:1028DC00844034421BD03D4219D00868800607D48E
:1028EC000A250868A8430860190001206E31C877D2
:1028FC00516818000C4354601A0000216D32683086
:10290C00D17794331B688B42DFD09847DDE70824DE
:10291C00270087403E42D8D02542D6D00E250C68E1
:10292C00AC430C6001210D00854028005468204305
:10293C0050601A00A43211601A006E32D1771A005E
:10294C00180000216D326830D1779C33DAE7C0462D
:10295C008C0100200000024080220A4BD9681142F1
:10296C0005D00121DA60084A4432117040BF802240
:10297C001969114204D01A610022034B44331A70B6
:10298C007047C046001802400C020020024AD3686F
:10299C000133D3607047C0460C010020704770476C
:1029AC007047FEE70023C25C0133002AFBD1581E9E
:1029BC00704700008446081C6146FFE71FB500F015
:1029CC004FFB002801D40021C8421FBD10B500F0F8
:1029DC00D3FA4042013010BD10B500F041FB002885
:1029EC0001DB002010BD012010BDC04610B500F069
:1029FC0037FB002801DD002010BD012010BDC046B2
:102A0C0010B500F0E1FA002801DC002010BD012017
:102A1C0010BDC04610B500F0D7FA002801DA00202E
:102A2C0010BD012010BDC046F0B54646D6464F46F7
:102A3C004D024202C0B5520A6E0A4700B0463F0E24
:102A4C004E00C40FD00094463B008246360EC90F90
:102A5C00AD098C426DD0B81B814600284DDD002E8F
:102A6C0000D188E0FF2F5AD08023DB041D434B4656
:102A7C0001221B2B0ADC2B004A464946D34020225C
:102A8C00521A95402A00551EAA411A4353469A1AC7
:102A9C00530100D4B9E092019609300000F088FE91
:102AAC0005388640874200DDD4E03300C71B202068
:102ABC000137FB40C71BBE403200561EB2410027F7
:102ACC001A43530704D00F231340042B00D00432B5
:102ADC00530100D49CE07B1CFE2F00D19AE09201A4
:102AEC00520A9446DBB2D8056346E40718432043E8
:102AFC00E0BCBA46B146A846F0BD002849D0F31B4D
:102B0C00002F00D0B6E05246002A60D0013B002BCB
:102B1C0000D1FCE0FF2E00D0B4E00C004246002AAD
:102B2C0078D08020C00310434202530A9C46FF23F6
:102B3C00D9E7B91B002971DD002E3FD0FF2FEED055
:102B4C008023DB041D4301221B2907DC2A002023E0
:102B5C00CA40591A8D406B1E9D412A435244530161
:102B6C0053D50137FF2F55D001237B491340520811
:102B7C000A401A43A5E7002D2CD001235B429C464A
:102B8C00E1444B46002B00D1ADE0FF2F00D06EE7A7
:102B9C00C5E7FE207E1C304260D1002F00D093E0B0
:102BAC005246002A00D1B6E0002D9CD0521B500199
:102BBC0000D4C3E053460C00EA1A82E7002D09D07A
:102BCC000139002900D18BE0FF2FBCD1A7E70C0005
:102BDC0042463700FF2FA2D05202530A9C46FBB24A
:102BEC0081E7FE210137394265D1002B7ED10028C7
:102BFC0000D1AAE0002D00D175E72A00524400272D
:102C0C00530102D5554B01371A40530700D05AE7F0
:102C1C00D208DFE70022FF23944664E70029E0D0C6
:102C2C00F31B002F3ED0FF2E00D177E7802201004E
:102C3C00D20411438A4601221B2B08DC5246202168
:102C4C005046DA40CB1A9840431E98410243370055
:102C5C00521984E7414A3F1A324032E753465E1B11
:102C6C0073012DD4002E00D017E70022002400237E
:102C7C00944638E7FF2E00D14FE780225046D2040D
:102C8C001043824601221B2B08DC5246202450465E
:102C9C00DA40E31A9840431E984102430C00370077
:102CAC00AA1AF5E6002893D0013B002B4FD0FF2E3B
:102CBC00C1D1424633E7FF2FACD055446A08A4E794
:102CCC0053460C00EE1AE8E65346002B28D1002D93
:102CDC0000D022E78023DB039C460024FF2302E77D
:102CEC002A0052443BE753465A1BD1E6002800D138
:102CFC0014E7002D00D112E78023DB031A4200D128
:102D0C000DE74146194200D009E7424607E70C009F
:102D1C003700AA1ABCE6002D13D00C00C446E2E61C
:102D2C00002D00D1FBE68023DB031A4200D1F6E62E
:102D3C004046184200D0F2E60C00EFE6002A00D024
:102D4C0063E7002200249446CDE6C446CBE62A0075
:102D5C003700524403E7C046FFFFFF7DFFFFFFFB38
:102D6C00F0B54F464646D6464502C0B547000C1C4A
:102D7C006D0A3F0EC60F002F66D0FF2F6CD00023BC
:102D8C00EA00802599469A46ED0415437F3F600280
:102D9C006100430A9846090EE40F002948D0FF2928
:102DAC0010D08022D800D2040243904600207F39F4
:102DBC004A4633007F1A02436C4992008A5863409A
:102DCC00DBB29746002B6DD10220FF3F33E000238E
:102DDC0098462600454682465346022B00D17FE09A
:102DEC00032B00D194E0012B17D038007F30002842
:102DFC005FDD6B0704D00F232B40042B00D0043570
:102E0C002B0103D538005A4B80301D40FE2867DC5F
:102E1C00AD016D0AC0B202E01E0000200025C00505
:102E2C002843F6073043E0BCBA46B146A846F0BD8D
:102E3C00002B2BD101204A4633004E49024392000D
:102E4C008A586340DBB29746002D13D10423994670
:102E5C00033B00279A469AE7002D05D10823994693
:102E6C00063BFF279A4692E70C239946093BFF271E
:102E7C009A468CE7280000F09BFC7627431F9D4068
:102E8C0000237F4299469A463F1A80E7180000F0CB
:102E9C008FFC4246431F76219A404942091A9046BC
:102EAC00002085E7FF21032082E71E00FF2000257C
:102EBC00B5E701231B1A1B2BAFDC9E372900BD4045
:102ECC00D9406A1E95410D436B0704D00F232B404C
:102EDC00042B00D004356B0144D5012000259EE75E
:102EEC00FF2000259BE780250026FF20ED0396E7B9
:102EFC00002398468020C003054209D04346034274
:102F0C0006D1454605436D022600FF206D0A86E773
:102F1C008020C00305436D02FF206D0A7FE7414608
:102F2C006A014801824219D21B210025013F01266A
:102F3C0014006D005200002C01DB904201D8121AD3
:102F4C00354301390029F3D1501E824138007F30BE
:102F5C001E001543002800DD4BE7AAE71A210125C6
:102F6C00121AE4E7AD0100206D0A58E7EC73000873
:102F7C00FFFFFFF72C74000870B542004E024C00A6
:102F8C0045026D0A120EC30F760A240EC90FFF2AD2
:102F9C000FD0FF2C11D00120A24200D070BDB54241
:102FAC00FCD18B420DD0002AF8D12800451EA84137
:102FBC00F4E70120002DF1D1EBE70120002EEDD13B
:102FCC00E9E70020EAE7C046F0B5420046024D02B0
:102FDC004C00C30F760A120E6D0A240EC80FFF2A7E
:102FEC001FD0FF2C10D0002A1FD171427141002C30
:102FFC0001D1002D1ED000290ED183421ED00221FA
:10300C00581E08400138F0BD002D26D1002AF4D1FD
:10301C00714271410029F0D00028F4D101204042C6
:10302C00F1E7002E19D1FF2CEED0002CE5D1002DAC
:10303C00E3D1E4E70020002EE5D0E0E7A24205DC76
:10304C00EADBAE4202D8E7D30020DCE74142414143
:10305C004842022108400138D5E702204042D2E71D
:10306C00F0B5420046024D024C00C30F760A120E18
:10307C006D0A240EC80FFF2A0DD0FF2C0FD0002A8A
:10308C0023D171427141002C0FD1002D0DD10020A4
:10309C00002E14D00DE0002E10D1FF2C15D1002DD8
:1030AC000CD1002A03D171427141002908D183420D
:1030BC0010D00221581E0840013800E00220F0BD5B
:1030CC000028FCD101204042F9E7002CEFD1002D63
:1030DC00EDD1EEE7A24205DCF2DBAE4202D8EFD333
:1030EC000020ECE7414241414842022108400138AE
:1030FC00E5E7C046F8B557464E464546DE4644021F
:10310C00E0B545000F1C640A2D0EC60F002D47D0EC
:10311C00FF2D4DD0002380209A469B46E400C0042E
:10312C0004437F3D7802430A99467A00FB0F984688
:10313C00120E4B4644D0FF2A11D0D8008023DB045A
:10314C000343994600207F3AAD18474653467740D3
:10315C00691C0F2B3FD8724A9B00D3589F46FF35F2
:10316C00002B00D079E0524602231A4392460220EB
:10317C00EBE747464C4683465B46022B28D0032B95
:10318C0000D1C6E0012B4FD100200024C005FF0761
:10319C0020433843F0BCBB46B246A946A046F8BD16
:1031AC00002C71D104239A46033B00259B46B9E7BA
:1031BC00002C63D108239A46063BFF259B46B1E7BA
:1031CC00002B50D1524601331A4392460120BCE7E2
:1031DC00FF200024DAE74846260C2404220C0404C1
:1031EC00240C4B4620001B0C504374435A435E4343
:1031FC001219030C9B189C4203D98022520294464C
:10320C00664400041A04000C12189401601E8441D8
:10321C001B0C920E9B1914439B011C431B0172D572
:10322C000120630804401C4308007F3000283CDD6B
:10323C00630704D00F232340042B00D00434230154
:10324C0003D580310800374B1C40FE28C0DCA4019C
:10325C00640AC0B29AE737008EE7524603231A433A
:10326C009246032071E7484600F0A2FA4A46431FF3
:10327C009A402D1A91460020763D66E70C239A461B
:10328C00093BFF259B464DE7200000F091FA76257F
:10329C00431F9C4000236D429A469B462D1A41E7E2
:1032AC0080240027FF20E40370E701231B1A1B2B4B
:1032BC0000DD69E79E3120008C40D840631E9C41A4
:1032CC000443630704D00F232340042B00D00434A1
:1032DC0063011AD50120002458E78020C003044262
:1032EC0009D04B46034206D14C4604436402474680
:1032FC00FF20640A4AE78020C003044364023700BD
:10330C00FF20640A42E729008EE7A4010020640A2A
:10331C003CE78020C00304436402FF20640A35E7C5
:10332C006C740008FFFFFFF7F0B54646D6464F46D3
:10333C0043025B0ADA0094464A02C0B54400560ABE
:10334C00051CB046240E4E0092091F002000924628
:10335C00ED0F360EC90FFF2E00D17FE00122514038
:10336C008D4251D0A21B9146002A00DC7EE0002E3B
:10337C0000D199E0FF2C00D18CE080235246DB0475
:10338C001A4392464A4601231B2A08DC5346202145
:10339C00D340891A52468A40511E8A4113436246D1
:1033AC00D31A5A0100D4F3E09B019E09300000F0BF
:1033BC00FFF905388640844200DDF7E03200041B3B
:1033CC0020200134E240041BA64033005E1EB341B2
:1033DC00002413435A0704D00F221A40042A00D0A9
:1033EC0004335A0100D4D6E0621CFE2C00D1DAE082
:1033FC009B015F0AD0B2C0053843ED072843E0BCFF
:10340C00BA46B146A846F0BDA21B9146002A63DD20
:10341C00002E00D199E0FF2C3CD080235246DB04D7
:10342C001A4392464A4601231B2A08DC53462021A4
:10343C00D340891A52468A40511E8A411343634431
:10344C005A0100D4A4E00134FF2C00D1ABE00122DE
:10345C0097491A405B080B401343BBE7002A32D054
:10346C008D4235D0FF2252429146A1444A46002A51
:10347C0051D0301B002C00D09CE06346002B00D1B7
:10348C00DFE00138002800D1F7E0FF2E00D099E0F2
:10349C000D004346002B00D185E08027FF031F431E
:1034AC007F02FF207F0AA6E75246002A74D0012231
:1034BC0052429046C1444A46002A00D1C8E0FF2C33
:1034CC0000D05FE7E6E701225140A94200D049E76E
:1034DC00FF2252429146A1444A46002A43D0311B56
:1034EC00002C00D18CE0FF2E00D192E080236246AC
:1034FC00DB041A43944601231B2909DC2020634674
:10350C006246CB40411A8A401100481E81410B4350
:10351C003400534494E7FE22661C324264D1002CE2
:10352C0000D082E06346002B00D1ABE05346002B69
:10353C0000D160E7634652469B1A5A0100D4AAE0B8
:10354C00634652460D00D31A44E75246002A23D054
:10355C00012252429046C1444A46002A75D0FF2CA3
:10356C0000D05FE796E7FE260134264253D10028AF
:10357C0072D16346002B00D193E05346002B00D14F
:10358C0039E7634400245A0102D54A4A01341340F6
:10359C005A0700D020E7DB08FF2C00D17AE75B024A
:1035AC005F0AE0B227E7FF20002724E7414B241AEB
:1035BC0033400FE7FF2E00D16AE780236246DB041D
:1035CC001A43944601231B2809DC202463466246D7
:1035DC00C340201A82401000441EA04103435246AF
:1035EC000D003400D31ADCE6634652469E1A730172
:1035FC0017D4002E00D0D9E6002500200027FAE6CB
:10360C006346002B44D0013900294CD0FF2E00D04A
:10361C0071E743463EE7FF2CC5D05246624453083F
:10362C00B6E763460D00D61AC0E66246002A16D1EC
:10363C005346002B00D02BE780270025FF20FF03EB
:10364C00D9E60D0043463400A6E753466344F7E63B
:10365C00634652469B1AA4E66246002AD9D05246CB
:10366C00002A00D116E78022D203134200D111E7C1
:10367C004046104200D00DE70AE752460D003400D8
:10368C00D31A8EE65346002B08D00D004746B2E6FF
:10369C004346340080E7002B00D079E70025002753
:1036AC00A9E64746A7E6534634006344C8E6C0463D
:1036BC00FFFFFF7DFFFFFFFB42024B024000490072
:1036CC00520A5B0A090E000EFF2806D00020FF29C3
:1036DC0002D11800431E98417047FE38002AFBD1D6
:1036EC00F4E7C04641024200C30F490A0020120E03
:1036FC007E2A03D99D2A02D9094A9818704780203E
:10370C0000040143952A07DC9620821AD1404842D6
:10371C00002BF3D10800F1E7963A9140F7E7C04649
:10372C00FFFFFF7F70B5002813D0C317C5185D408D
:10373C00C40F280000F03CF89E2301001B1A962BA6
:10374C000FDC082801DD08398D406D026D0AD8B2F6
:10375C0002E0002400200025C0052843E407204394
:10376C0070BD992B0BDD05222E00121AD6400200DB
:10377C001B3295402800451EA841350005430529FC
:10378C0001DD4A1F95402A00084E3240680709D0D7
:10379C000F202840042805D00432500102D59F2365
:1037AC0032405B1A9201550AD8B2D5E7FFFFFFFBF6
:1037BC001C2101231B04984201D3000C10391B0A55
:1037CC00984201D3000A08391B09984201D3000919
:1037DC00043902A2105C40187047C0460403020270
:1037EC0001010101000000000000000002B471465C
:1037FC0049084900095C49008E4402BC7047C04628
:10380C0003B47146490840004900095A49008E44E6
:10381C0003BC7047002243088B4274D303098B42CC
:10382C005FD3030A8B4244D3030B8B4228D3030C84
:10383C008B420DD3FF22090212BA030C8B4202D326
:10384C001212090265D0030B8B4219D300E0090A4E
:10385C00C30B8B4201D3CB03C01A5241830B8B4257
:10386C0001D38B03C01A5241430B8B4201D34B0340
:10387C00C01A5241030B8B4201D30B03C01A5241A5
:10388C00C30A8B4201D3CB02C01A5241830A8B422A
:10389C0001D38B02C01A5241430A8B4201D34B0213
:1038AC00C01A5241030A8B4201D30B02C01A524177
:1038BC00CDD2C3098B4201D3CB01C01A524183092B
:1038CC008B4201D38B01C01A524143098B4201D365
:1038DC004B01C01A524103098B4201D30B01C01A90
:1038EC005241C3088B4201D3CB00C01A524183080A
:1038FC008B4201D38B00C01A524143088B4201D337
:10390C004B00C01A5241411A00D201465241104696
:10391C007047FFE701B5002000F0F0F802BDC0468B
:10392C000029F7D076E7704703460B437FD400227B
:10393C0043088B4274D303098B425FD3030A8B4237
:10394C0044D3030B8B4228D3030C8B420DD3FF22A1
:10395C00090212BA030C8B4202D31212090265D06F
:10396C00030B8B4219D300E0090AC30B8B4201D322
:10397C00CB03C01A5241830B8B4201D38B03C01A69
:10398C005241430B8B4201D34B03C01A5241030BE0
:10399C008B4201D30B03C01A5241C30A8B4201D391
:1039AC00CB02C01A5241830A8B4201D38B02C01A3C
:1039BC005241430A8B4201D34B02C01A5241030AB3
:1039CC008B4201D30B02C01A5241CDD2C3098B4298
:1039DC0001D3CB01C01A524183098B4201D38B0115
:1039EC00C01A524143098B4201D34B01C01A5241B8
:1039FC0003098B4201D30B01C01A5241C3088B42FD
:103A0C0001D3CB00C01A524183088B4201D38B00E7
:103A1C00C01A524143088B4201D34B00C01A524189
:103A2C00411A00D201465241104670475DE0CA0F60
:103A3C0000D04942031000D34042534000229C4620
:103A4C0003098B422DD3030A8B4212D3FC2289012A
:103A5C0012BA030A8B420CD3890192118B4208D300
:103A6C00890192118B4204D389013AD0921100E062
:103A7C008909C3098B4201D3CB01C01A5241830976
:103A8C008B4201D38B01C01A524143098B4201D3A3
:103A9C004B01C01A524103098B4201D30B01C01ACE
:103AAC005241C3088B4201D3CB00C01A5241830848
:103ABC008B4201D38B00C01A5241D9D243088B429E
:103ACC0001D34B00C01A5241411A00D20146634641
:103ADC0052415B10104601D34042002B00D54942A5
:103AEC00704763465B1000D3404201B5002000F0E4
:103AFC0005F802BD0029F8D016E770477047C0469C
:103B0C00002B11D1002A0FD1002900D1002802D09E
:103B1C000021C943081C07B4024802A140180290B6
:103B2C0003BDC046D9FFFFFF03B4684601B5029838
:103B3C0000F01EF8019B9E4602B00CBC7047C046BC
:103B4C009E2110B5C905041CFEF764FF002803D1A3
:103B5C00201CFFF7C7FD10BD9E21201CC905FFF7D7
:103B6C00E3FBFFF7BFFD80231B069C466044F2E796
:103B7C00F0B557464E464546DE46E0B504000D000E
:103B8C009246994683B08B4230D82DD04946504648
:103B9C0000F0F6F829000600200000F0F1F8331AC6
:103BAC009846203B9B4633D45A4653469340424654
:103BBC001F00534693401E00AF423AD8AF4200D18B
:103BCC0078E05B46A41BBD41002B00DA75E00022B7
:103BDC0000230092019301235A4693400193012341
:103BEC0042469340009328E08242CFD90022002322
:103BFC00009201930C9B002B01D01C605D6000981F
:103C0C00019903B0F0BCBB46B246A946A046F0BD34
:103C1C00424620239B1A5246DA40414613004A463C
:103C2C008A40170042461F43534693401E00AF4242
:103C3C00C4D900220023009201934346002BD9D013
:103C4C00FB0772081A4346467B080EE0AB4201D1D3
:103C5C00A2420CD8A41A9D41012024196D410021C7
:103C6C00013E24184D41002E06D0AB42EED9013E48
:103C7C0024196D41002EF8D1009801995B4600196A
:103C8C006941002B24DB2B005A464446D3402A00C2
:103C9C00E2401C005B461500002B2ADB26009E40F0
:103CAC00330026004746BE403200801A99410090EE
:103CBC0001919FE7A342BCD883E742462023002111
:103CCC009B1A0022009101920122DA40019286E7B0
:103CDC00424620239B1A2A0046469A402300F34072
:103CEC00444613432A00E2401C005B461500002B9F
:103CFC00D4DA42462F002023260097409B1ADE4040
:103D0C003B003343CDE7C04670B5051E0ED0FFF720
:103D1C004FFD9E2304001B1A962B0CDC082801DD9A
:103D2C00083CA5406D026D0AD8B201E000200025C8
:103D3C00C005284370BD992B09DD020029001B32F8
:103D4C0091404A1E91410522121AD5400D43052C73
:103D5C0001DD621F95402900084E31406A0709D0E9
:103D6C000F202840042805D004314A0102D59F2396
:103D7C0031401B1B89014D0AD8B2D9E7FFFFFFFB6D
:103D8C0010B5002903D1FFF713FD203002E0081C09
:103D9C00FFF70EFD10BDC0460D488546002103E01F
:103DAC000C4B5B58435004310B480C4B42189A4255
:103DBC00F6D30B4A02E0002313600432094B9A42FB
:103DCC00F9D3FEF707FC03F061FA00F017F8FEE7F1
:103DDC0000200020207A0008000000207000002045
:103DEC0070000020E0020020FEE70000014B024AB8
:103DFC001A6170478C010020540200208023F0B51A
:103E0C002F4D5B002A68B5B0134300202B60FCF7E4
:103E1C00A5FE002811D12B4B0130196C01431964FC
:103E2C0080211A6C490502400F920F9ADA6B0A43F3
:103E3C00DA63DB6B0B400E930E9B234C234A2368F7
:103E4C0006201A4080239B0013432360204B2149FA
:103E5C001B6858430193FFF7DDFC80230130DB0026
:103E6C0062691A4228D13823164F1B4EBA68134088
:103E7C00FA68102B38D103210A40022A36D13A684D
:103E8C0016497A6811408022D2010A437A60002BCD
:103E9C000AD13B68124A13403B603B68114A9B04B1
:103EAC005B0FDA400A4B1A60094B5868FCF756FE58
:103EBC00002832D0FCF720FD0028D4D00138CFE701
:103ECC00002002400010024000700040FFF9FFFF8C
:103EDC000000002040420F000C010020FF80FFFF7B
:103EEC00FFC7FFFF0024F400002BC8D03B68F14A49
:103EFC0013403B6080233A685B00134380223B6095
:103F0C00F168D2003B68134200D156E27B68EA4A62
:103F1C001A408023DB0113437B603822BB681340BB
:103F2C00102B00D15BE23B68E44A134080223B60DB
:103F3C00F16892043B68134200D044E2FB68E04A0B
:103F4C001A40E04B1343FB6080233A685B04134335
:103F5C003B608023FA685B0513438022FB60F168A9
:103F6C0092043B68134200D133E206232A681A42BA
:103F7C0000D15BE2E023BA68DB011343BB60BB6892
:103F8C00D1480340BB603B6808909B0192D5072247
:103F9C00BB68CE4893431A00022313433822BB60FC
:103FAC00F168BC681440102C00D051E207232A6839
:103FBC001A40022A00D951E2BB68C54A1340BB60C3
:103FCC00FCF74CFEBB68C34A1B051B0F9B00D318A8
:103FDC001F221B6A1340D840BF4B18605868FCF76F
:103FEC00BDFD0190002800D064E7012604217B6D03
:103FFC00BA4A802513407B65019BA02031937B6BD3
:10400C00C00533437B637B6B33400D930D9B7A6B05
:10401C000A437A637B6B0B400C930C9B7A6B0239D3
:10402C000A437A637B6B80220B400B930B9BA02380
:10403C005200DB059D629A614023A9498B6201996C
:10404C003D3B2F912DA930932D952E96FDF7B8FB66
:10405C008022A02052002D92019A2DA9C0052F92EA
:10406C0030922E96FDF7ACFB40232D93019B9C4880
:10407C002DA92F9330932E96FDF7A2FB994B9A48BE
:10408C002E93019B2DA92D952F93FDF799FBC12103
:10409C00C220964A8900535880001B021B0A5350B9
:1040AC001560BB6B92493343BB63BB6B914D334083
:1040BC000A930A9B13580B40135080239B001360E8
:1040CC008D4B28002B648D4BEE646B64019B81300F
:1040DC00AB642B656B65AB65EB652B662B004033D6
:1040EC0000789C467D4B04920293099100282ED1B6
:1040FC006346019A40331A707B6BA02033437B6379
:10410C007B6B2DA933401193119BC023DB002D93A6
:10411C0012232E93019BC005309306232F963193C7
:10412C00FDF74EFB8021FA6B89030A43FA63C52223
:10413C00FB6B92000B401093109B049B04999B58B3
:10414C001B021B0A8B508023049A1B0413602B0048
:10415C002422012181331A702B6C694E1A68A86CC9
:10416C008A431A60696C674A05960A401A619A6814
:10417C00E96C32409A60012900D080E18022120261
:10418C0002439A60012659685F4A5A480A435A60AA
:10419C00DA68059905000A40DA60416D026D403518
:1041AC000A43816D079509020A43DA60016EC26DFC
:1041BC000A431A601A68010032431A60002208315F
:1041CC00CA6701008131029120218C46029D297021
:1041DC000267823002702878C1B20691604500D027
:1041EC0068E6079D40352878AC46B04200D161E6C0
:1041FC002420029908701D684449B5431D601D6850
:10420C000D401D601D6806991D601D6835431D60BD
:10421C00029D297061460A702D78E9B206913B49DE
:10422C000791202D00D045E60299394D0870186889
:10423C000899B0431860186808401860186802990B
:10424C0030431860069B33480B7063461A70E123A9
:10425C000C215B026B602B1DDB6F2860AA60EA608F
:10426C002A616961AA61EA612A626A62AA620290A1
:10427C00934251D12A0080207C321370FA6B800259
:10428C000243FA63FA6B02401392139A7A6BA020E2
:10429C0032437A637A6BC00532401292129A022230
:1042AC002D912DA92E922F9330933196FDF788FAEC
:1042BC0032E0C046FFC7FFFFFF80FFFFFFFFFFFE9E
:1042CC008C80C11102080222FFF0FFFF881300004E
:1042DC00FF8FFFFF1C73000800000020FFCFFFFFC3
:1042EC0000080050000031100004005000E100E014
:1042FC00FF00FFFF8C000020005400407321600081
:10430C00FF7FFFFFFFFFFFF000800002FFEFFFFFCA
:10431C005402002000440040242201212B1DDA67A6
:10432C002A68286913686E6E8B431360AB68E96961
:10433C000343686903430B4310683343964E304084
:10434C0003431360536895480340E8680343536084
:10435C00934BA8699A4201D02B6A18439368914EEB
:10436C0033400F2618439060D06A6B6AB0431843F1
:10437C00D0628D48824200D08CE0032080267A6D7A
:10438C0036020240013A022A01D901F071F887483D
:10439C006030805CB14201D100F0C0FE082801D928
:1043AC0001F09BF8FFF72CFAA10899085707990818
:1043BC009707990899089908AA07F3685B1A022BC2
:1043CC0000D89FE576E5F3685B1A022B00D8B1E5BF
:1043DC0070E5F3685B1A022B00D8C2E56AE503228C
:1043EC00FB681A40022A00D064E56E32134200D0FA
:1043FC0060E5FE228021D2011A4009018A4200D0D8
:10440C0058E5F822802192031A4089028A4200D092
:10441C0050E5E022802112051A4089048A4200D01E
:10442C0048E55B0F012B00D19FE543E507230222F2
:10443C0029685F4899430A432A60F1682A681A4040
:10444C00022A00D196E5F268521A8242F6D931E579
:10445C00F3685B1A834200D8A3E52BE50222296896
:10446C00534899430A432A60F1682A681A40022A81
:10447C0000D1A1E5F268521A8242F6D91AE58422DB
:10448C00120202439A60022900D07BE680221201BC
:10449C005A6077E60298824201D101F022F8404836
:1044AC00824201D001F014F8C02180207A6D0901FC
:1044BC000A400001824201D100F078FC0AD8002A9F
:1044CC0042D08023DB009A4201D100F0BBFC0123D7
:1044DC00019378E08A42FAD1002B01D100F0E7FC7D
:1044EC00012B01D100F0EBFC022B01D100F0E9FC17
:1044FC00032B01D100F0E7FC042B01D100F0E5FC0B
:10450C00052B01D100F0E3FC062B01D100F0E1FCFE
:10451C00072B01D100F0CCFC2024082B01D100F09A
:10452C00C7FC2419092B01D100F0C2FC40340A2B22
:10453C0001D100F0BDFC7F3C0B2B01D000F0B8FC8E
:10454C008024640000F0B4FCFCF774FB6B6A002B55
:10455C0030D0012B00D1F5E3022B00D1F4E3032B77
:10456C0000D1F3E3042B00D1F2E3052B00D1F1E3EE
:10457C00062B00D1F0E3072B1DD02024082B1AD0DA
:10458C002419092B17D040340A2B14D07F3C0B2B49
:10459C0011D1802464000EE0F369FFCFFFCFFFFF41
:1045AC0000800040FFF4FF11003801401C7300082C
:1045BC008813000001242100FFF72CF900260028A5
:1045CC0001D000F018FCE64CE64BA3660023E36632
:1045DC002367019B012B00D16CE4A26A2368002A9B
:1045EC0049D0D10705D55968DF480140E06A01433D
:1045FC005960910705D55968DC480140206B01438F
:10460C005960510705D55968D9480140606B014381
:10461C005960110705D5596805980140A06B0143F5
:10462C005960D10605D59E68D2490E40E16B0E4308
:10463C009E60910605D59968CF480140206C0143D6
:10464C00996051060FD55968CC4E606C31400143CE
:10465C00596080214903884205D15968C8480140F6
:10466C00A06C01435960120605D55A68C5490A4029
:10467C00E16C0A435A605A68C349C44E0A402A2165
:10468C005A609A688A439A60012219680A431A6030
:10469C002200002188321160F2681B6801921B070E
:1046AC0001D500F05CFE23681B685B070AD58021EE
:1046BC002000B74B019AC903FBF772FD002801D00B
:1046CC00FFF7F8FB20232A1DD3672A000832D36793
:1046DC0000237C352B700121AE4DAF4AEB616B6230
:1046EC00AB62EB622B00A961AC496A612962513360
:1046FC001B780192D9B2002B06D12B002800503325
:10470C0019701430FDF772FA2C0002232900513471
:10471C00237068691831FCF7D9F9012323702378C9
:10472C00DAB2002B02D12B0050331A702C0002236A
:10473C0029005134237018316869FCF7C7F901223C
:10474C002900227050310B78934201D1FFF7B2FB54
:10475C00022323706C699248236A93432362236A71
:10476C006268A1690140602001438E48844201D1F6
:10477C0000F002FE0198844201D100F0FDFD8A4850
:10478C00844201D100F0F8FD02208343184362609B
:10479C00A1610021082361632062A2692DA8134343
:1047AC000422A361A3699343A361A369033AA361A0
:1047BC002B0051331A70802350359B016364297090
:1047CC00133202F087FD019B9C4215D101227B6BB9
:1047DC00A02013437B637B6B2DA913401493149B74
:1047EC0040232D933E3B2E930023C0052F933093F3
:1047FC0005333193FCF7E4FFE0226C4BD2003361BC
:10480C008223F26180225B00736100239200B2620A
:10481C00F93AFF3AB36133627362F26233637363E2
:10482C00B36333647364013A614BF2631B78DCB29B
:10483C00002B72D13300802101256C331C703A6C33
:10484C0049010A433A643B6CA0200B401693169B1B
:10485C007B6B2DA92B437B637B6B02272B40159322
:10486C00159B544BC0052D9303232E9730932F94F7
:10487C003194FCF7A5FF1121464B8C46D9660139C2
:10488C00196770319967191DCC6719000831CC670D
:10489C00190088310C6018001900474AA8316E3095
:1048AC00C7775C67DC670C601168444F9A663940C7
:1048BC00116090211768394311601A001F0040499C
:1048CC00AC3211603F4AB0373A601F00B4373D60DC
:1048DC0067460F6055601A00B83214601A00BC327B
:1048EC0014601A00C03214601A00A43214601A004A
:1048FC006D32D477344A903372662D4AC5775D3A5F
:10490C001A60C622049B92009B5809990B4004998B
:10491C008B508023049A9B0413601C4D02222B00A5
:10492C0040216D331A702A69E86913688B43136050
:10493C00E023DB00984201D900F089FD802464015A
:10494C00984201D00023AB632B6C002B3ED1E023AB
:10495C00DB00984201D800F022FD02232B6435E0E5
:10496C005402002001000100FFFFFDFFFFFFFEFFCE
:10497C00FFFFFBFFFFEFFFFFFFDFFFFFFFFFEFFF7F
:10498C00FFFF9FFFFFFFF7FFFFB7FFFF0C010020AA
:10499C00FFFFFF018C01002000440140E7030000F1
:1049AC008CFFFEFF002C014000480140003001400C
:1049BC007901002002100000080002400F80FFFF68
:1049CC000008024080080240F4010020AE696B69C7
:1049DC00A96A33432E6A33436E6A3343EE6A334318
:1049EC002E6B3343AE6B33438026B6000E403343FD
:1049FC0013606B6B090C18436B6C18430423194040
:104A0C0001430C435460D369D449D54C0B40D3615A
:104A1C0000232A0001212B67A3602361636180338B
:104A2C00A36123006D321170CE4A3D332260CE4A11
:104A3C006260CE4AE2601B78DAB2002B05D123000B
:104A4C003C3320001A70FDF7D1F8260002233D36C6
:104A5C00211D20683370FCF739F80123C4483370EA
:104A6C00FCF7A8FFC348FCF7A5FFC348FCF7ABFF56
:104A7C00EB680193019AEB689B1AFA22920093421D
:104A8C0001D3FFF717FA002321001793230081317C
:104A9C000A784033202AEDD180208026226C000237
:104AAC009269360210403242E4D140331A78012A1E
:104ABC00E0D001271F7024230B7023000833D86724
:104ACC00E36C013B5A425341AC4A5B421340AC4A43
:104ADC009B18226C5360EE6893695B093B4019008C
:104AEC0093691B093B400B4301D100F05BFC9369BC
:104AFC00102110221940134201D000F067FC330042
:104B0C002020063AFBF712FB0028B3D12023226C9D
:104B1C00D3612200803420709A4C813221001370B2
:104B2C0063311C222DA802F0DDFB1C212DA8FBF704
:104B3C0099FE1C212DA8FCF78DF9002801D0FFF758
:104B4C00B9F9FBF7ECFE21001C227F3126A802F0FC
:104B5C00C9FB1C2126A8FBF785FE1C2126A8FCF707
:104B6C0079F9002801D0FFF7A5F9FBF7D8FE864CA0
:104B7C000E2221001DA81B3102F0B4FB0E211DA832
:104B8C00FBF770FE0E211DA8FCF764F9002801D07C
:104B9C00FFF790F9FBF7C3FE21000B2229311AA86D
:104BAC0002F0A0FB0B211AA8FBF75CFE0B211AA844
:104BBC00FCF750F9002801D0FFF77CF9FBF7AFFEAA
:104BCC0021001422343121A802F08CFB142121A8DD
:104BDC00FBF748FE142121A8FCF73CF9002801D072
:104BEC00FFF768F9FBF79BFE21000822483118A853
:104BFC0002F078FB082118A8FBF734FE082118A84E
:104C0C00FCF728F9002801D0FFF754F9FA26EC68D4
:104C1C00B600EB681B1BB34206D25C48FBF7D2FC18
:104C2C00002801D100F00CFCA02000244223012616
:104C3C002DA9C0052D9331942E962F943096FCF708
:104C4C00BFFD3000FBF726FE0223A0202D932E93F0
:104C5C002DA99B19C0052F9430933194FCF7B0FD0E
:104C6C002A0020004021743201341070517002323D
:104C7C000E2CF9D1FBF720FB002801D0FFF71AF915
:104C8C006D352B78DCB2012BFBD1A02000254133F4
:104C9C002DA9C0052D9331952E942F953094FCF7AA
:104CAC008FFD2800FBF7F6FDA020022603232DA97B
:104CBC00C00530932D962E962F953195FCF780FDDF
:104CCC004023A0202D932DA93B3BC00531932E965C
:104CDC002F953095FCF774FD2D4B5B691A6AA24336
:104CEC001A621A6A22431A622A4A934205D02A4A45
:104CFC00934202D01B4A934204D18022596C120277
:104D0C000A435A649A6825490A40062A06D007398C
:104D1C008A4203D0012219680A431A600225FCF763
:104D2C0099FF1F4C44342378002B02D01D48FBF70D
:104D3C0049FC1D4B1A68AA431A6020BF1A682A4303
:104D4C001A60F0E7022436E4042434E4062432E446
:104D5C00082430E40A242EE40C242CE4FFF7FFFF93
:104D6C008C000020004801409F0F00003F1F0000F6
:104D7C00C5750008DC750008F575000800F8FF0122
:104D8C00842800001C7300089C730008911B000809
:104D9C008C010020002C0140004401400700010060
:104DAC000C020020BD1C000810E000E0002B1CD001
:104DBC00012B3BD0022B3BD0032B3BD0042B3BD005
:104DCC00052B3BD0062B3BD0072B0FD02024082BD8
:104DDC000CD02419092B09D040340A2B06D07F3C67
:104DEC000B2B03D18024640000E001242100AA488D
:104DFC00FEF710FD022603236C686343984201D230
:104E0C00FFF765FB2303984201D9FFF760FB082EDF
:104E1C0000D97FE13000FEF7F3FC5E007D01B200AB
:104E2C007D01F8007D017D017D0147010224DDE754
:104E3C000424DBE70624D9E70824D7E70A24D5E7BE
:104E4C000C24D3E7FBF70AFF6B6A002B1CD0012B59
:104E5C0021D0022B21D0032B21D0042B21D0052BC8
:104E6C0021D0062B21D0072B0FD02024082B0CD0BF
:104E7C002419092B09D040340A2B06D07F3C0B2B6C
:104E8C0003D18024640000E001242100FEF7C2FC61
:104E9C000426FFF794FB0224F7E70424F5E7062425
:104EAC00F3E70824F1E70A24EFE70C24EDE70124EB
:104EBC00802021000002FEF7ADFC08269BE70224AF
:104ECC00F6E70424F4E70624F2E70824F0E70A24C2
:104EDC00EEE70C24ECE7FBF7ADFE696A0122002338
:104EEC0000292DD002220023012929D004220023DD
:104EFC00022925D006220023032921D008220023D1
:104F0C0004291DD00A220023052919D00C220023C4
:104F1C00062915D010220023072911D020220023A6
:104F2C0008290DD040220023092909D08022002312
:104F3C000A2905D001220B2901D18022520000231D
:104F4C006968002401910021FEF7DAFD0300020ECE
:104F5C0009021143019A18025308C0186141230039
:104F6C00FEF7CEFD01964D4B4D4AC318934201D925
:104F7C00FFF7ADFA4B4B1B68D860FFF724FB696A4F
:104F8C000122002300292DD002220023012929D03F
:104F9C0004220023022925D006220023032921D034
:104FAC000822002304291DD00A220023052919D028
:104FBC000C220023062915D010220023072911D01A
:104FCC002022002308290DD040220023092909D0D2
:104FDC00802200230A2905D001220B2901D180222D
:104FEC00520000232C480021FEF78AFD0B02002101
:104FFC00060E02023343600812184B4102920393CF
:10500C000B0002980399220043E0FBF727FE696A24
:10501C000122002300292DD002220023012929D0AE
:10502C0004220023022925D006220023032921D0A3
:10503C000822002304291DD00A220023052919D097
:10504C000C220023062915D010220023072911D089
:10505C002022002308290DD040220023092909D041
:10506C00802200230A2905D001220B2901D180229C
:10507C00520000230021FEF743FD030000246E685C
:10508C00020E0902114318027308C0186141320064
:10509C002300FEF735FD66E70024F40000FDFFFF5A
:1050AC00FFFC0F0054020020696A01220023002932
:1050BC002DD002220023012929D004220023022909
:1050CC0025D006220023032921D0082200230429FD
:1050DC001DD00A220023052919D00C2200230629F1
:1050EC0015D010220023072911D0202200230829D3
:1050FC000DD040220023092909D0802200230A293F
:10510C0005D001220B2901D18022520000238020DE
:10511C00000268E701230020019324E7082800D946
:10512C0095E0FEF76DFBA701940009009400500078
:10513C009400940094006300002B1CD0012B36D0FB
:10514C00022B36D0032B36D0042B36D0052B36D081
:10515C00062B36D0072B0FD02024082B0CD024196B
:10516C00092B09D040340A2B06D07F3C0B2B03D1E2
:10517C008024640000E0012421006E68B648FEF72C
:10518C0049FB730840003100C018FEF743FB80B2A6
:10519C000300B24A103B934201D9FFF798F90F2351
:1051AC00020000079A43400F2B681043E4E60224E8
:1051BC00E2E70424E0E70624DEE70824DCE70A241F
:1051CC00DAE70C24D8E7FBF749FD55E1012421006F
:1051DC006E68D4E70224FAE70424F8E70624F6E71D
:1051EC000824F4E70A24F2E70C24F0E7002B1CD087
:1051FC00012B20D0022B20D0032B20D0042B20D02D
:10520C00052B20D0062B20D0072B0FD02024082BC9
:10521C000CD02419092B09D040340A2B06D07F3C22
:10522C000B2B03D18024640000E00124802021009A
:10523C006E680002A3E70224F8E70424F6E70624CC
:10524C00F4E70824F2E70A24F0E70C24EEE7012344
:10525C00002001939CE7002B1CD0012B2FD0022B9C
:10526C002FD0032B2FD0042B2FD0052B2FD0062B78
:10527C002FD0072B0FD02024082B0CD02419092B4E
:10528C0009D040340A2B06D07F3C0B2B03D1802451
:10529C00640000E0012421006E686F48FEF7BAFA42
:1052AC0073083100C018FEF7B5FA80B203006B4AE0
:1052BC00103B934201D9FFF70AF92B685CE60224F4
:1052CC00E9E70424E7E70624E5E70824E3E70A24F2
:1052DC00E1E70C24DFE7FBF7C1FC08E10124210026
:1052EC006E68DBE70224FAE70424F8E70624F6E705
:1052FC000824F4E70A24F2E70C24F0E7002B1CD076
:10530C00012B20D0022B20D0032B20D0042B20D01B
:10531C00052B20D0062B20D0072B0FD02024082BB8
:10532C000CD02419092B09D040340A2B06D07F3C11
:10533C000B2B03D18024640000E001248020210089
:10534C006E680002AAE70224F8E70424F6E70624B4
:10535C00F4E70824F2E70A24F0E70C24EEE78021B6
:10536C0020003F4B019A8903FAF71AFF002801D15C
:10537C00FFF799F9FEF79EFD0E2083430C38184376
:10538C00384B9C4207D0019B9C4204D0364B9C422C
:10539C0001D0FFF7FCF9354B1A40FFF7F8F9012360
:1053AC00FFF7DCFAE968891B0A2901D8FFF794FB9F
:1053BC002100202281310A7021000831C86F02437C
:1053CC00CA67220080321370FFF754FB00213300B0
:1053DC000A222020FAF7AAFE011E01D0FFF74AFB91
:1053EC001023226CD361DB18D361179B012B10D1D6
:1053FC0080235068DB0103435360202033000A22D2
:10540C00FAF794FE002801D0FFF734FB2022236C1E
:10541C00DA61179B01331793179B002B01D1FFF710
:10542C004FFB220020238132137022000832D16FEF
:10543C000B43D3672300002280331A70FFF71AFB4B
:10544C00EA68EB689B1A0A2BFBD9FFF7E2FBF02307
:10545C0000241B01FFF774FA0024F400EFFF000096
:10546C00FFFFFF01002C014000480140FFFCFFFF43
:10547C00B1423AD1FBF7DEFB6B6A002B00D1A5E6FB
:10548C00012B00D1A6E6022B00D1A5E6032B00D1FF
:10549C00A4E6042B00D1A3E6052B00D1A2E6062B33
:1054AC0000D1A1E6072B00D191E62024082B00D1D6
:1054BC008DE62419092B00D189E640340A2B00D142
:1054CC0085E67F3C0B2B00D081E6802464007EE6D1
:1054DC0080231B02994200D1B9E6012300200193DD
:1054EC00E4E680231B029942C4D0FBF7A3FB6B6A52
:1054FC00002B00D1F2E6012B00D1F3E6022B00D1F8
:10550C00F2E6032B00D1F1E6042B00D1F0E6052BDB
:10551C0000D1EFE6062B00D1EEE6072B00D1DEE63C
:10552C002024082B00D1DAE62419092B00D1D6E669
:10553C0040340A2B00D1D2E67F3C0B2B00D0CEE6B8
:10554C0080246400CBE6C04600B51C4A430083B0FF
:10555C005B08934219DDFF22D205934204DB011C48
:10556C00FDF7E2FE03B000BD694600F0D1FC032359
:10557C000199184001280CD0022817D0002811D00E
:10558C000122009801F0F8FAECE7002100F092FEFD
:10559C00E8E70122009801F0EFFA80231B069C46F5
:1055AC006044DFE7009800F085FEDBE7009800F030
:1055BC0081FE80231B069C466044D3E7D80F493FED
:1055CC0000B51D4A430083B05B0893421CDDFF22EB
:1055DC00D205934204DB011CFDF7A6FE03B000BD0F
:1055EC00694600F095FC032301991840012810D05E
:1055FC00022817D0002810D0009800F05BFE802302
:10560C001B069C466044E9E70022002101F0B4FA35
:10561C00E4E7009800F04EFEE0E70122009801F06C
:10562C00ABFADBE70122009801F0A6FA80231B06F7
:10563C009C466044D2E7C046D80F493F00B5104A9B
:10564C00430083B05B08934215DDFF22D2059342E1
:10565C0004DB011CFDF768FE03B000BD694600F0D9
:10566C0057FC022240001040013A121A019900988E
:10567C0001F0FAFAF0E70122002101F0F5FAEBE76C
:10568C00DA0F493F70B5041C00F07CF80F4B051C79
:10569C001B785BB201330ED0211C201CFEF70CF8DA
:1056AC00002808D1201C01F043FDFE218905FDF7DF
:1056BC00A7F9002801D1281C70BD01F0E1FD2123C0
:1056CC000360034801F07AFD051CF4E70800002094
:1056DC00F875000870B5041C00F0B6F90F4B051CEA
:1056EC001B785BB201330ED0211C201CFDF7E4FFAC
:1056FC00002808D1201C01F01BFDFE218905FDF7B7
:10570C007FF9002801D1281C70BD01F0B9FD2123BF
:10571C000360034801F052FD051CF4E7080000206B
:10572C00F875000810B500F0E1FA10BD70B5051C55
:10573C000C1C00F063FB124B061C1B785BB2013394
:10574C0011D0211C201CFDF7B7FF00280BD1291C00
:10575C00281CFDF7B1FF002805D10021201CFDF706
:10576C0035F9002801D1301C70BD01F089FD2123D1
:10577C0000210360081CFDF7F3FA061CF3E7C04692
:10578C0008000020FE22F8B543000100041C5B0851
:10579C009205934211D00ADCFC229205934211DA55
:1057AC008C229205934200DD7EE0984804E0FDF7E0
:1057BC00BBFD011CFDF7D4FAF8BD0020002CFBDC6E
:1057CC009348F9E7002800DAC1E0FE208005FDF7D8
:1057DC00ABFDFC218905FDF78DFC041C00F012FDCE
:1057EC008C49061C050B201CFDF784FC8A49FDF72F
:1057FC001BF9211CFDF77EFC8849FDF795FD211C4A
:10580C00FDF778FC8649FDF70FF9211CFDF772FCBA
:10581C008449FDF789FD211CFDF76CFC8249FDF7DD
:10582C0003F9211CFDF766FC8049071C201CFDF7C1
:10583C0061FC7F49FDF778FD211CFDF75BFC7D4980
:10584C00FDF7F2F8211CFDF755FC7B49FDF76CFDCB
:10585C00211CFDF74FFCFE218905FDF7E5F8011C25
:10586C00381CFDF77DFA311CFDF744FC2D03071C99
:10587C00291C281CFDF73EFC011C201CFDF754FDC7
:10588C00291C041C301CFDF7CFF8011C201CFDF753
:10589C0067FA011C381CFDF7C7F8291CFDF7C4F882
:1058AC00011CFDF7C1F887E7FDF724FC5949051CDD
:1058BC00FDF720FC5849FDF7B7F8291CFDF71AFC39
:1058CC005649FDF731FD291CFDF714FC5449FDF731
:1058DC00ABF8291CFDF70EFC5249FDF725FD291CE0
:1058EC00FDF708FC5049FDF79FF8291CFDF702FC59
:1058FC004E49061C281CFDF7FDFB4D49FDF714FD18
:10590C00291CFDF7F7FB4B49FDF78EF8291CFDF719
:10591C00F1FB4949FDF708FD291CFDF7EBFBFE21C6
:10592C008905FDF781F8011C301CFDF719FA211CC3
:10593C00FDF7E0FB011C4148FDF7F6FC011C201CA7
:10594C00FDF7F2FC011C3E48FDF7EEFC34E7FE21AE
:10595C008905FDF769F8FC218905FDF7CBFB2D497D
:10596C00041CFDF7C7FB2C49FDF75EF8211CFDF765
:10597C00C1FB2A49FDF7D8FC211CFDF7BBFB2849CC
:10598C00FDF752F8211CFDF7B5FB2649FDF7CCFCC1
:10599C00211CFDF7AFFB2449FDF746F8211CFDF750
:1059AC00A9FB061C201C00F02DFC2049051C201C0A
:1059BC00FDF7A0FB1E49FDF7B7FC211CFDF79AFB78
:1059CC001C49FDF731F8211CFDF794FB1A49FDF732
:1059DC00ABFC211CFDF78EFBFE218905FDF724F89D
:1059EC00011C301CFDF7BCF9291CFDF783FB134986
:1059FC00FDF79AFC291CFDF717F8011CFDF714F8AC
:105A0C00011C1048FDF790FCD6E6C046DB0FC93FE1
:105A1C00DB0F494008EF1138047F4F3A4611243D03
:105A2C00A80A4E3E90B0A63EABAA2A3E2EC69D3D7D
:105A3C006133303F2D57014039D119406821A233D1
:105A4C00DA0FC93FDA0F4940F0B5FE234646D64679
:105A5C004F464500C0B5041C06006D089B059D42D1
:105A6C0000D1B5E000DDACE0FC239B059D4210DAD3
:105A7C00C8239B059D4200DBCCE08C49FCF7D4FF8E
:105A8C00FE218905FCF7BCFF0300201C002B00D075
:105A9C0092E0201C01F04CFB011CFE208005FDF760
:105AAC0043FCFC218905FDF725FB8149041CFDF70E
:105ABC0021FB8049FCF7B8FF211CFDF71BFB7E493D
:105ACC00FDF732FC211CFDF715FB7C49FCF7ACFF04
